{
	"FundMe.sol": {
		"FundMe": {
			"abi": [
				{
					"inputs": [],
					"stateMutability": "nonpayable",
					"type": "constructor"
				},
				{
					"inputs": [],
					"name": "MIN_VALUE",
					"outputs": [
						{
							"internalType": "uint256",
							"name": "",
							"type": "uint256"
						}
					],
					"stateMutability": "view",
					"type": "function"
				},
				{
					"inputs": [],
					"name": "TARGET",
					"outputs": [
						{
							"internalType": "uint256",
							"name": "",
							"type": "uint256"
						}
					],
					"stateMutability": "view",
					"type": "function"
				},
				{
					"inputs": [],
					"name": "changeOwner",
					"outputs": [],
					"stateMutability": "nonpayable",
					"type": "function"
				},
				{
					"inputs": [],
					"name": "contractBalance",
					"outputs": [
						{
							"internalType": "uint256",
							"name": "",
							"type": "uint256"
						}
					],
					"stateMutability": "view",
					"type": "function"
				},
				{
					"inputs": [],
					"name": "drawFun",
					"outputs": [],
					"stateMutability": "nonpayable",
					"type": "function"
				},
				{
					"inputs": [],
					"name": "erc20Addr",
					"outputs": [
						{
							"internalType": "address",
							"name": "",
							"type": "address"
						}
					],
					"stateMutability": "view",
					"type": "function"
				},
				{
					"inputs": [],
					"name": "expirationTime",
					"outputs": [
						{
							"internalType": "uint256",
							"name": "",
							"type": "uint256"
						}
					],
					"stateMutability": "view",
					"type": "function"
				},
				{
					"inputs": [],
					"name": "fund",
					"outputs": [],
					"stateMutability": "payable",
					"type": "function"
				},
				{
					"inputs": [
						{
							"internalType": "address",
							"name": "",
							"type": "address"
						}
					],
					"name": "funder2Amount",
					"outputs": [
						{
							"internalType": "uint256",
							"name": "",
							"type": "uint256"
						}
					],
					"stateMutability": "view",
					"type": "function"
				},
				{
					"inputs": [],
					"name": "getBalanceUsd",
					"outputs": [
						{
							"internalType": "uint256",
							"name": "",
							"type": "uint256"
						}
					],
					"stateMutability": "view",
					"type": "function"
				},
				{
					"inputs": [],
					"name": "getChainlinkDataFeedLatestAnswer",
					"outputs": [
						{
							"internalType": "int256",
							"name": "",
							"type": "int256"
						}
					],
					"stateMutability": "view",
					"type": "function"
				},
				{
					"inputs": [],
					"name": "getMyFund",
					"outputs": [
						{
							"internalType": "uint256",
							"name": "",
							"type": "uint256"
						}
					],
					"stateMutability": "view",
					"type": "function"
				},
				{
					"inputs": [],
					"name": "isContractEnd",
					"outputs": [
						{
							"internalType": "bool",
							"name": "",
							"type": "bool"
						}
					],
					"stateMutability": "view",
					"type": "function"
				},
				{
					"inputs": [],
					"name": "lockDuration",
					"outputs": [
						{
							"internalType": "uint256",
							"name": "",
							"type": "uint256"
						}
					],
					"stateMutability": "view",
					"type": "function"
				},
				{
					"inputs": [],
					"name": "owner",
					"outputs": [
						{
							"internalType": "address",
							"name": "",
							"type": "address"
						}
					],
					"stateMutability": "view",
					"type": "function"
				},
				{
					"inputs": [],
					"name": "refund",
					"outputs": [],
					"stateMutability": "nonpayable",
					"type": "function"
				},
				{
					"inputs": [
						{
							"internalType": "address",
							"name": "_erc20Addr",
							"type": "address"
						}
					],
					"name": "setErc20",
					"outputs": [],
					"stateMutability": "nonpayable",
					"type": "function"
				},
				{
					"inputs": [
						{
							"internalType": "address",
							"name": "funder",
							"type": "address"
						},
						{
							"internalType": "uint256",
							"name": "amount",
							"type": "uint256"
						}
					],
					"name": "setFunder2Amount",
					"outputs": [],
					"stateMutability": "nonpayable",
					"type": "function"
				},
				{
					"inputs": [],
					"name": "startTime",
					"outputs": [
						{
							"internalType": "uint256",
							"name": "",
							"type": "uint256"
						}
					],
					"stateMutability": "view",
					"type": "function"
				}
			],
			"devdoc": {
				"kind": "dev",
				"methods": {},
				"version": 1
			},
			"evm": {
				"assembly": "    /* \"FundMe.sol\":172:4228  contract FundMe {... */\n  mstore(0x40, 0x80)\n    /* \"FundMe.sol\":238:251  10000 * 10**8 */\n  0xe8d4a51000\n    /* \"FundMe.sol\":211:251  uint256 public MIN_VALUE = 10000 * 10**8 */\n  0x00\n  sstore\n    /* \"FundMe.sol\":299:313  100000 * 10**8 */\n  0x09184e72a000\n    /* \"FundMe.sol\":275:313  uint256 public TARGET = 100000 * 10**8 */\n  0x01\n  sstore\n    /* \"FundMe.sol\":599:604  false */\n  0x00\n    /* \"FundMe.sol\":571:604  bool public isContractEnd = false */\n  0x08\n  exp(0x0100, 0x14)\n  dup2\n  sload\n  dup2\n  0xff\n  mul\n  not\n  and\n  swap1\n  dup4\n  iszero\n  iszero\n  mul\n  or\n  swap1\n  sstore\n  pop\n    /* \"FundMe.sol\":611:1047  constructor() {... */\n  callvalue\n  dup1\n  iszero\n  tag_1\n  jumpi\n  revert(0x00, 0x00)\ntag_1:\n  pop\n    /* \"FundMe.sol\":827:869  0x694AA1769357215DE4FAC081bf1f309aDC325306 */\n  0x694aa1769357215de4fac081bf1f309adc325306\n    /* \"FundMe.sol\":781:789  dataFeed */\n  0x04\n  0x00\n    /* \"FundMe.sol\":781:879  dataFeed = AggregatorV3Interface(... */\n  0x0100\n  exp\n  dup2\n  sload\n  dup2\n  0xffffffffffffffffffffffffffffffffffffffff\n  mul\n  not\n  and\n  swap1\n  dup4\n  0xffffffffffffffffffffffffffffffffffffffff\n  and\n  mul\n  or\n  swap1\n  sstore\n  pop\n    /* \"FundMe.sol\":897:907  msg.sender */\n  caller\n    /* \"FundMe.sol\":889:894  owner */\n  0x02\n  0x00\n    /* \"FundMe.sol\":889:907  owner = msg.sender */\n  0x0100\n  exp\n  dup2\n  sload\n  dup2\n  0xffffffffffffffffffffffffffffffffffffffff\n  mul\n  not\n  and\n  swap1\n  dup4\n  0xffffffffffffffffffffffffffffffffffffffff\n  and\n  mul\n  or\n  swap1\n  sstore\n  pop\n    /* \"FundMe.sol\":929:944  block.timestamp */\n  timestamp\n    /* \"FundMe.sol\":917:926  startTime */\n  0x05\n    /* \"FundMe.sol\":917:944  startTime = block.timestamp */\n  dup2\n  swap1\n  sstore\n  pop\n    /* \"FundMe.sol\":969:975  5 * 60 */\n  0x012c\n    /* \"FundMe.sol\":954:966  lockDuration */\n  0x06\n    /* \"FundMe.sol\":954:975  lockDuration = 5 * 60 */\n  dup2\n  swap1\n  sstore\n  pop\n    /* \"FundMe.sol\":1028:1040  lockDuration */\n  sload(0x06)\n    /* \"FundMe.sol\":1016:1025  startTime */\n  sload(0x05)\n    /* \"FundMe.sol\":1016:1040  startTime + lockDuration */\n  tag_4\n  swap2\n  swap1\n  tag_5\n  jump\t// in\ntag_4:\n    /* \"FundMe.sol\":999:1013  expirationTime */\n  0x07\n    /* \"FundMe.sol\":999:1040  expirationTime = startTime + lockDuration */\n  dup2\n  swap1\n  sstore\n  pop\n    /* \"FundMe.sol\":172:4228  contract FundMe {... */\n  jump(tag_6)\n    /* \"#utility.yul\":7:84   */\ntag_7:\n    /* \"#utility.yul\":44:51   */\n  0x00\n    /* \"#utility.yul\":73:78   */\n  dup2\n    /* \"#utility.yul\":62:78   */\n  swap1\n  pop\n    /* \"#utility.yul\":7:84   */\n  swap2\n  swap1\n  pop\n  jump\t// out\n    /* \"#utility.yul\":90:270   */\ntag_8:\n    /* \"#utility.yul\":138:215   */\n  0x4e487b7100000000000000000000000000000000000000000000000000000000\n    /* \"#utility.yul\":135:136   */\n  0x00\n    /* \"#utility.yul\":128:216   */\n  mstore\n    /* \"#utility.yul\":235:239   */\n  0x11\n    /* \"#utility.yul\":232:233   */\n  0x04\n    /* \"#utility.yul\":225:240   */\n  mstore\n    /* \"#utility.yul\":259:263   */\n  0x24\n    /* \"#utility.yul\":256:257   */\n  0x00\n    /* \"#utility.yul\":249:264   */\n  revert\n    /* \"#utility.yul\":276:467   */\ntag_5:\n    /* \"#utility.yul\":316:319   */\n  0x00\n    /* \"#utility.yul\":335:355   */\n  tag_13\n    /* \"#utility.yul\":353:354   */\n  dup3\n    /* \"#utility.yul\":335:355   */\n  tag_7\n  jump\t// in\ntag_13:\n    /* \"#utility.yul\":330:355   */\n  swap2\n  pop\n    /* \"#utility.yul\":369:389   */\n  tag_14\n    /* \"#utility.yul\":387:388   */\n  dup4\n    /* \"#utility.yul\":369:389   */\n  tag_7\n  jump\t// in\ntag_14:\n    /* \"#utility.yul\":364:389   */\n  swap3\n  pop\n    /* \"#utility.yul\":412:413   */\n  dup3\n    /* \"#utility.yul\":409:410   */\n  dup3\n    /* \"#utility.yul\":405:414   */\n  add\n    /* \"#utility.yul\":398:414   */\n  swap1\n  pop\n    /* \"#utility.yul\":433:436   */\n  dup1\n    /* \"#utility.yul\":430:431   */\n  dup3\n    /* \"#utility.yul\":427:437   */\n  gt\n    /* \"#utility.yul\":424:460   */\n  iszero\n  tag_15\n  jumpi\n    /* \"#utility.yul\":440:458   */\n  tag_16\n  tag_8\n  jump\t// in\ntag_16:\n    /* \"#utility.yul\":424:460   */\ntag_15:\n    /* \"#utility.yul\":276:467   */\n  swap3\n  swap2\n  pop\n  pop\n  jump\t// out\n    /* \"FundMe.sol\":172:4228  contract FundMe {... */\ntag_6:\n  dataSize(sub_0)\n  dup1\n  dataOffset(sub_0)\n  0x00\n  codecopy\n  0x00\n  return\nstop\n\nsub_0: assembly {\n        /* \"FundMe.sol\":172:4228  contract FundMe {... */\n      mstore(0x40, 0x80)\n      jumpi(tag_1, lt(calldatasize, 0x04))\n      shr(0xe0, calldataload(0x00))\n      dup1\n      0x87bebdf7\n      gt\n      tag_21\n      jumpi\n      dup1\n      0xb60d4288\n      gt\n      tag_22\n      jumpi\n      dup1\n      0xb60d4288\n      eq\n      tag_16\n      jumpi\n      dup1\n      0xbea4dfb5\n      eq\n      tag_17\n      jumpi\n      dup1\n      0xcc1f2afa\n      eq\n      tag_18\n      jumpi\n      dup1\n      0xda284dcc\n      eq\n      tag_19\n      jumpi\n      dup1\n      0xee9b80a4\n      eq\n      tag_20\n      jumpi\n      jump(tag_1)\n    tag_22:\n      dup1\n      0x87bebdf7\n      eq\n      tag_11\n      jumpi\n      dup1\n      0x8b7afe2e\n      eq\n      tag_12\n      jumpi\n      dup1\n      0x8da5cb5b\n      eq\n      tag_13\n      jumpi\n      dup1\n      0x992c15fc\n      eq\n      tag_14\n      jumpi\n      dup1\n      0xb0800b3f\n      eq\n      tag_15\n      jumpi\n      jump(tag_1)\n    tag_21:\n      dup1\n      0x590e1ae3\n      gt\n      tag_23\n      jumpi\n      dup1\n      0x590e1ae3\n      eq\n      tag_6\n      jumpi\n      dup1\n      0x5e9c72fc\n      eq\n      tag_7\n      jumpi\n      dup1\n      0x62a09477\n      eq\n      tag_8\n      jumpi\n      dup1\n      0x6555697b\n      eq\n      tag_9\n      jumpi\n      dup1\n      0x78e97925\n      eq\n      tag_10\n      jumpi\n      jump(tag_1)\n    tag_23:\n      dup1\n      0x04554443\n      eq\n      tag_2\n      jumpi\n      dup1\n      0x18cccf91\n      eq\n      tag_3\n      jumpi\n      dup1\n      0x317e3ce0\n      eq\n      tag_4\n      jumpi\n      dup1\n      0x3f79d96f\n      eq\n      tag_5\n      jumpi\n    tag_1:\n      revert(0x00, 0x00)\n        /* \"FundMe.sol\":473:500  uint256 public lockDuration */\n    tag_2:\n      callvalue\n      dup1\n      iszero\n      tag_24\n      jumpi\n      revert(0x00, 0x00)\n    tag_24:\n      pop\n      tag_25\n      tag_26\n      jump\t// in\n    tag_25:\n      mload(0x40)\n      tag_27\n      swap2\n      swap1\n      tag_28\n      jump\t// in\n    tag_27:\n      mload(0x40)\n      dup1\n      swap2\n      sub\n      swap1\n      return\n        /* \"FundMe.sol\":2506:3217  function drawFun() public outWindow onlyOwner {... */\n    tag_3:\n      callvalue\n      dup1\n      iszero\n      tag_29\n      jumpi\n      revert(0x00, 0x00)\n    tag_29:\n      pop\n      tag_30\n      tag_31\n      jump\t// in\n    tag_30:\n      stop\n        /* \"FundMe.sol\":541:565  address public erc20Addr */\n    tag_4:\n      callvalue\n      dup1\n      iszero\n      tag_32\n      jumpi\n      revert(0x00, 0x00)\n    tag_32:\n      pop\n      tag_33\n      tag_34\n      jump\t// in\n    tag_33:\n      mload(0x40)\n      tag_35\n      swap2\n      swap1\n      tag_36\n      jump\t// in\n    tag_35:\n      mload(0x40)\n      dup1\n      swap2\n      sub\n      swap1\n      return\n        /* \"FundMe.sol\":571:604  bool public isContractEnd = false */\n    tag_5:\n      callvalue\n      dup1\n      iszero\n      tag_37\n      jumpi\n      revert(0x00, 0x00)\n    tag_37:\n      pop\n      tag_38\n      tag_39\n      jump\t// in\n    tag_38:\n      mload(0x40)\n      tag_40\n      swap2\n      swap1\n      tag_41\n      jump\t// in\n    tag_40:\n      mload(0x40)\n      dup1\n      swap2\n      sub\n      swap1\n      return\n        /* \"FundMe.sol\":3223:3560  function refund() external inWindow {... */\n    tag_6:\n      callvalue\n      dup1\n      iszero\n      tag_42\n      jumpi\n      revert(0x00, 0x00)\n    tag_42:\n      pop\n      tag_43\n      tag_44\n      jump\t// in\n    tag_43:\n      stop\n        /* \"FundMe.sol\":3692:3812  function getMyFund() public view returns (uint256) {... */\n    tag_7:\n      callvalue\n      dup1\n      iszero\n      tag_45\n      jumpi\n      revert(0x00, 0x00)\n    tag_45:\n      pop\n      tag_46\n      tag_47\n      jump\t// in\n    tag_46:\n      mload(0x40)\n      tag_48\n      swap2\n      swap1\n      tag_28\n      jump\t// in\n    tag_48:\n      mload(0x40)\n      dup1\n      swap2\n      sub\n      swap1\n      return\n        /* \"FundMe.sol\":2425:2500  function changeOwner() public onlyOwner {... */\n    tag_8:\n      callvalue\n      dup1\n      iszero\n      tag_49\n      jumpi\n      revert(0x00, 0x00)\n    tag_49:\n      pop\n      tag_50\n      tag_51\n      jump\t// in\n    tag_50:\n      stop\n        /* \"FundMe.sol\":3818:4018  function setFunder2Amount(address funder, uint256 amount) public onlyOwner {... */\n    tag_9:\n      callvalue\n      dup1\n      iszero\n      tag_52\n      jumpi\n      revert(0x00, 0x00)\n    tag_52:\n      pop\n      tag_53\n      0x04\n      dup1\n      calldatasize\n      sub\n      dup2\n      add\n      swap1\n      tag_54\n      swap2\n      swap1\n      tag_55\n      jump\t// in\n    tag_54:\n      tag_56\n      jump\t// in\n    tag_53:\n      stop\n        /* \"FundMe.sol\":443:467  uint256 public startTime */\n    tag_10:\n      callvalue\n      dup1\n      iszero\n      tag_57\n      jumpi\n      revert(0x00, 0x00)\n    tag_57:\n      pop\n      tag_58\n      tag_59\n      jump\t// in\n    tag_58:\n      mload(0x40)\n      tag_60\n      swap2\n      swap1\n      tag_28\n      jump\t// in\n    tag_60:\n      mload(0x40)\n      dup1\n      swap2\n      sub\n      swap1\n      return\n        /* \"FundMe.sol\":345:393  mapping(address => uint256) public funder2Amount */\n    tag_11:\n      callvalue\n      dup1\n      iszero\n      tag_61\n      jumpi\n      revert(0x00, 0x00)\n    tag_61:\n      pop\n      tag_62\n      0x04\n      dup1\n      calldatasize\n      sub\n      dup2\n      add\n      swap1\n      tag_63\n      swap2\n      swap1\n      tag_64\n      jump\t// in\n    tag_63:\n      tag_65\n      jump\t// in\n    tag_62:\n      mload(0x40)\n      tag_66\n      swap2\n      swap1\n      tag_28\n      jump\t// in\n    tag_66:\n      mload(0x40)\n      dup1\n      swap2\n      sub\n      swap1\n      return\n        /* \"FundMe.sol\":4124:4226  function contractBalance() public view returns (uint256) {... */\n    tag_12:\n      callvalue\n      dup1\n      iszero\n      tag_67\n      jumpi\n      revert(0x00, 0x00)\n    tag_67:\n      pop\n      tag_68\n      tag_69\n      jump\t// in\n    tag_68:\n      mload(0x40)\n      tag_70\n      swap2\n      swap1\n      tag_28\n      jump\t// in\n    tag_70:\n      mload(0x40)\n      dup1\n      swap2\n      sub\n      swap1\n      return\n        /* \"FundMe.sol\":319:339  address public owner */\n    tag_13:\n      callvalue\n      dup1\n      iszero\n      tag_71\n      jumpi\n      revert(0x00, 0x00)\n    tag_71:\n      pop\n      tag_72\n      tag_73\n      jump\t// in\n    tag_72:\n      mload(0x40)\n      tag_74\n      swap2\n      swap1\n      tag_36\n      jump\t// in\n    tag_74:\n      mload(0x40)\n      dup1\n      swap2\n      sub\n      swap1\n      return\n        /* \"FundMe.sol\":211:251  uint256 public MIN_VALUE = 10000 * 10**8 */\n    tag_14:\n      callvalue\n      dup1\n      iszero\n      tag_75\n      jumpi\n      revert(0x00, 0x00)\n    tag_75:\n      pop\n      tag_76\n      tag_77\n      jump\t// in\n    tag_76:\n      mload(0x40)\n      tag_78\n      swap2\n      swap1\n      tag_28\n      jump\t// in\n    tag_78:\n      mload(0x40)\n      dup1\n      swap2\n      sub\n      swap1\n      return\n        /* \"FundMe.sol\":3566:3686  function getBalanceUsd() public view returns (uint256) {... */\n    tag_15:\n      callvalue\n      dup1\n      iszero\n      tag_79\n      jumpi\n      revert(0x00, 0x00)\n    tag_79:\n      pop\n      tag_80\n      tag_81\n      jump\t// in\n    tag_80:\n      mload(0x40)\n      tag_82\n      swap2\n      swap1\n      tag_28\n      jump\t// in\n    tag_82:\n      mload(0x40)\n      dup1\n      swap2\n      sub\n      swap1\n      return\n        /* \"FundMe.sol\":2001:2179  function fund() external payable inWindow {... */\n    tag_16:\n      tag_83\n      tag_84\n      jump\t// in\n    tag_83:\n      stop\n        /* \"FundMe.sol\":1645:1995  function getChainlinkDataFeedLatestAnswer() public view returns (int256) {... */\n    tag_17:\n      callvalue\n      dup1\n      iszero\n      tag_85\n      jumpi\n      revert(0x00, 0x00)\n    tag_85:\n      pop\n      tag_86\n      tag_87\n      jump\t// in\n    tag_86:\n      mload(0x40)\n      tag_88\n      swap2\n      swap1\n      tag_89\n      jump\t// in\n    tag_88:\n      mload(0x40)\n      dup1\n      swap2\n      sub\n      swap1\n      return\n        /* \"FundMe.sol\":275:313  uint256 public TARGET = 100000 * 10**8 */\n    tag_18:\n      callvalue\n      dup1\n      iszero\n      tag_90\n      jumpi\n      revert(0x00, 0x00)\n    tag_90:\n      pop\n      tag_91\n      tag_92\n      jump\t// in\n    tag_91:\n      mload(0x40)\n      tag_93\n      swap2\n      swap1\n      tag_28\n      jump\t// in\n    tag_93:\n      mload(0x40)\n      dup1\n      swap2\n      sub\n      swap1\n      return\n        /* \"FundMe.sol\":506:535  uint256 public expirationTime */\n    tag_19:\n      callvalue\n      dup1\n      iszero\n      tag_94\n      jumpi\n      revert(0x00, 0x00)\n    tag_94:\n      pop\n      tag_95\n      tag_96\n      jump\t// in\n    tag_95:\n      mload(0x40)\n      tag_97\n      swap2\n      swap1\n      tag_28\n      jump\t// in\n    tag_97:\n      mload(0x40)\n      dup1\n      swap2\n      sub\n      swap1\n      return\n        /* \"FundMe.sol\":4024:4118  function setErc20(address _erc20Addr) public onlyOwner {... */\n    tag_20:\n      callvalue\n      dup1\n      iszero\n      tag_98\n      jumpi\n      revert(0x00, 0x00)\n    tag_98:\n      pop\n      tag_99\n      0x04\n      dup1\n      calldatasize\n      sub\n      dup2\n      add\n      swap1\n      tag_100\n      swap2\n      swap1\n      tag_64\n      jump\t// in\n    tag_100:\n      tag_101\n      jump\t// in\n    tag_99:\n      stop\n        /* \"FundMe.sol\":473:500  uint256 public lockDuration */\n    tag_26:\n      sload(0x06)\n      dup2\n      jump\t// out\n        /* \"FundMe.sol\":2506:3217  function drawFun() public outWindow onlyOwner {... */\n    tag_31:\n        /* \"FundMe.sol\":1400:1414  expirationTime */\n      sload(0x07)\n        /* \"FundMe.sol\":1381:1396  block.timestamp */\n      timestamp\n        /* \"FundMe.sol\":1381:1414  block.timestamp >= expirationTime */\n      lt\n      iszero\n        /* \"FundMe.sol\":1360:1476  require(... */\n      tag_103\n      jumpi\n      mload(0x40)\n      0x08c379a000000000000000000000000000000000000000000000000000000000\n      dup2\n      mstore\n      0x04\n      add\n      tag_104\n      swap1\n      tag_105\n      jump\t// in\n    tag_104:\n      mload(0x40)\n      dup1\n      swap2\n      sub\n      swap1\n      revert\n    tag_103:\n        /* \"FundMe.sol\":1106:1111  owner */\n      0x02\n      0x00\n      swap1\n      sload\n      swap1\n      0x0100\n      exp\n      swap1\n      div\n      0xffffffffffffffffffffffffffffffffffffffff\n      and\n        /* \"FundMe.sol\":1092:1111  msg.sender == owner */\n      0xffffffffffffffffffffffffffffffffffffffff\n      and\n        /* \"FundMe.sol\":1092:1102  msg.sender */\n      caller\n        /* \"FundMe.sol\":1092:1111  msg.sender == owner */\n      0xffffffffffffffffffffffffffffffffffffffff\n      and\n      eq\n        /* \"FundMe.sol\":1084:1143  require(msg.sender == owner, \"only owner can change owner\") */\n      tag_107\n      jumpi\n      mload(0x40)\n      0x08c379a000000000000000000000000000000000000000000000000000000000\n      dup2\n      mstore\n      0x04\n      add\n      tag_108\n      swap1\n      tag_109\n      jump\t// in\n    tag_108:\n      mload(0x40)\n      dup1\n      swap2\n      sub\n      swap1\n      revert\n    tag_107:\n        /* \"FundMe.sol\":2624:2630  TARGET */\n      sload(0x01)\n        /* \"FundMe.sol\":2583:2620  ethWei2Usd(funder2Amount[msg.sender]) */\n      tag_111\n        /* \"FundMe.sol\":2594:2607  funder2Amount */\n      0x03\n        /* \"FundMe.sol\":2594:2619  funder2Amount[msg.sender] */\n      0x00\n        /* \"FundMe.sol\":2608:2618  msg.sender */\n      caller\n        /* \"FundMe.sol\":2594:2619  funder2Amount[msg.sender] */\n      0xffffffffffffffffffffffffffffffffffffffff\n      and\n      0xffffffffffffffffffffffffffffffffffffffff\n      and\n      dup2\n      mstore\n      0x20\n      add\n      swap1\n      dup2\n      mstore\n      0x20\n      add\n      0x00\n      keccak256\n      sload\n        /* \"FundMe.sol\":2583:2593  ethWei2Usd */\n      tag_112\n        /* \"FundMe.sol\":2583:2620  ethWei2Usd(funder2Amount[msg.sender]) */\n      jump\t// in\n    tag_111:\n        /* \"FundMe.sol\":2583:2630  ethWei2Usd(funder2Amount[msg.sender]) >= TARGET */\n      lt\n      iszero\n        /* \"FundMe.sol\":2562:2689  require(... */\n      tag_113\n      jumpi\n      mload(0x40)\n      0x08c379a000000000000000000000000000000000000000000000000000000000\n      dup2\n      mstore\n      0x04\n      add\n      tag_114\n      swap1\n      tag_115\n      jump\t// in\n    tag_114:\n      mload(0x40)\n      dup1\n      swap2\n      sub\n      swap1\n      revert\n    tag_113:\n        /* \"FundMe.sol\":2721:2726  owner */\n      0x02\n      0x00\n      swap1\n      sload\n      swap1\n      0x0100\n      exp\n      swap1\n      div\n      0xffffffffffffffffffffffffffffffffffffffff\n      and\n        /* \"FundMe.sol\":2707:2726  msg.sender == owner */\n      0xffffffffffffffffffffffffffffffffffffffff\n      and\n        /* \"FundMe.sol\":2707:2717  msg.sender */\n      caller\n        /* \"FundMe.sol\":2707:2726  msg.sender == owner */\n      0xffffffffffffffffffffffffffffffffffffffff\n      and\n      eq\n        /* \"FundMe.sol\":2699:2754  require(msg.sender == owner, \"only owner can get fund\") */\n      tag_116\n      jumpi\n      mload(0x40)\n      0x08c379a000000000000000000000000000000000000000000000000000000000\n      dup2\n      mstore\n      0x04\n      add\n      tag_117\n      swap1\n      tag_118\n      jump\t// in\n    tag_117:\n      mload(0x40)\n      dup1\n      swap2\n      sub\n      swap1\n      revert\n    tag_116:\n        /* \"FundMe.sol\":3072:3084  bool success */\n      0x00\n        /* \"FundMe.sol\":3098:3108  msg.sender */\n      caller\n        /* \"FundMe.sol\":3090:3114  payable(msg.sender).call */\n      0xffffffffffffffffffffffffffffffffffffffff\n      and\n        /* \"FundMe.sol\":3122:3139  contractBalance() */\n      tag_119\n        /* \"FundMe.sol\":3122:3137  contractBalance */\n      tag_69\n        /* \"FundMe.sol\":3122:3139  contractBalance() */\n      jump\t// in\n    tag_119:\n        /* \"FundMe.sol\":3090:3144  payable(msg.sender).call{value: contractBalance()}(\"\") */\n      mload(0x40)\n      tag_120\n      swap1\n      tag_121\n      jump\t// in\n    tag_120:\n      0x00\n      mload(0x40)\n      dup1\n      dup4\n      sub\n      dup2\n      dup6\n      dup8\n      gas\n      call\n      swap3\n      pop\n      pop\n      pop\n      returndatasize\n      dup1\n      0x00\n      dup2\n      eq\n      tag_124\n      jumpi\n      mload(0x40)\n      swap2\n      pop\n      and(add(returndatasize, 0x3f), not(0x1f))\n      dup3\n      add\n      0x40\n      mstore\n      returndatasize\n      dup3\n      mstore\n      returndatasize\n      0x00\n      0x20\n      dup5\n      add\n      returndatacopy\n      jump(tag_123)\n    tag_124:\n      0x60\n      swap2\n      pop\n    tag_123:\n      pop\n        /* \"FundMe.sol\":3071:3144  (bool success, ) = payable(msg.sender).call{value: contractBalance()}(\"\") */\n      pop\n      swap1\n      pop\n        /* \"FundMe.sol\":3162:3169  success */\n      dup1\n        /* \"FundMe.sol\":3154:3180  require(success, \"failed\") */\n      tag_125\n      jumpi\n      mload(0x40)\n      0x08c379a000000000000000000000000000000000000000000000000000000000\n      dup2\n      mstore\n      0x04\n      add\n      tag_126\n      swap1\n      tag_127\n      jump\t// in\n    tag_126:\n      mload(0x40)\n      dup1\n      swap2\n      sub\n      swap1\n      revert\n    tag_125:\n        /* \"FundMe.sol\":3206:3210  true */\n      0x01\n        /* \"FundMe.sol\":3190:3203  isContractEnd */\n      0x08\n      0x14\n        /* \"FundMe.sol\":3190:3210  isContractEnd = true */\n      0x0100\n      exp\n      dup2\n      sload\n      dup2\n      0xff\n      mul\n      not\n      and\n      swap1\n      dup4\n      iszero\n      iszero\n      mul\n      or\n      swap1\n      sstore\n      pop\n        /* \"FundMe.sol\":2552:3217  {... */\n      pop\n        /* \"FundMe.sol\":2506:3217  function drawFun() public outWindow onlyOwner {... */\n      jump\t// out\n        /* \"FundMe.sol\":541:565  address public erc20Addr */\n    tag_34:\n      0x08\n      0x00\n      swap1\n      sload\n      swap1\n      0x0100\n      exp\n      swap1\n      div\n      0xffffffffffffffffffffffffffffffffffffffff\n      and\n      dup2\n      jump\t// out\n        /* \"FundMe.sol\":571:604  bool public isContractEnd = false */\n    tag_39:\n      0x08\n      0x14\n      swap1\n      sload\n      swap1\n      0x0100\n      exp\n      swap1\n      div\n      0xff\n      and\n      dup2\n      jump\t// out\n        /* \"FundMe.sol\":3223:3560  function refund() external inWindow {... */\n    tag_44:\n        /* \"FundMe.sol\":1236:1250  expirationTime */\n      sload(0x07)\n        /* \"FundMe.sol\":1218:1233  block.timestamp */\n      timestamp\n        /* \"FundMe.sol\":1218:1250  block.timestamp < expirationTime */\n      lt\n        /* \"FundMe.sol\":1197:1305  require(... */\n      tag_129\n      jumpi\n      mload(0x40)\n      0x08c379a000000000000000000000000000000000000000000000000000000000\n      dup2\n      mstore\n      0x04\n      add\n      tag_130\n      swap1\n      tag_131\n      jump\t// in\n    tag_130:\n      mload(0x40)\n      dup1\n      swap2\n      sub\n      swap1\n      revert\n    tag_129:\n        /* \"FundMe.sol\":3269:3289  uint256 refundAmount */\n      0x00\n        /* \"FundMe.sol\":3292:3305  funder2Amount */\n      0x03\n        /* \"FundMe.sol\":3292:3317  funder2Amount[msg.sender] */\n      0x00\n        /* \"FundMe.sol\":3306:3316  msg.sender */\n      caller\n        /* \"FundMe.sol\":3292:3317  funder2Amount[msg.sender] */\n      0xffffffffffffffffffffffffffffffffffffffff\n      and\n      0xffffffffffffffffffffffffffffffffffffffff\n      and\n      dup2\n      mstore\n      0x20\n      add\n      swap1\n      dup2\n      mstore\n      0x20\n      add\n      0x00\n      keccak256\n      sload\n        /* \"FundMe.sol\":3269:3317  uint256 refundAmount = funder2Amount[msg.sender] */\n      swap1\n      pop\n        /* \"FundMe.sol\":3350:3351  0 */\n      0x00\n        /* \"FundMe.sol\":3335:3347  refundAmount */\n      dup2\n        /* \"FundMe.sol\":3335:3351  refundAmount > 0 */\n      gt\n        /* \"FundMe.sol\":3327:3381  require(refundAmount > 0, \"you have no eth to refund\") */\n      tag_133\n      jumpi\n      mload(0x40)\n      0x08c379a000000000000000000000000000000000000000000000000000000000\n      dup2\n      mstore\n      0x04\n      add\n      tag_134\n      swap1\n      tag_135\n      jump\t// in\n    tag_134:\n      mload(0x40)\n      dup1\n      swap2\n      sub\n      swap1\n      revert\n    tag_133:\n        /* \"FundMe.sol\":3420:3432  refundAmount */\n      dup1\n        /* \"FundMe.sol\":3391:3404  funder2Amount */\n      0x03\n        /* \"FundMe.sol\":3391:3416  funder2Amount[msg.sender] */\n      0x00\n        /* \"FundMe.sol\":3405:3415  msg.sender */\n      caller\n        /* \"FundMe.sol\":3391:3416  funder2Amount[msg.sender] */\n      0xffffffffffffffffffffffffffffffffffffffff\n      and\n      0xffffffffffffffffffffffffffffffffffffffff\n      and\n      dup2\n      mstore\n      0x20\n      add\n      swap1\n      dup2\n      mstore\n      0x20\n      add\n      0x00\n      keccak256\n      0x00\n        /* \"FundMe.sol\":3391:3432  funder2Amount[msg.sender] -= refundAmount */\n      dup3\n      dup3\n      sload\n      tag_136\n      swap2\n      swap1\n      tag_137\n      jump\t// in\n    tag_136:\n      swap3\n      pop\n      pop\n      dup2\n      swap1\n      sstore\n      pop\n        /* \"FundMe.sol\":3443:3455  bool success */\n      0x00\n        /* \"FundMe.sol\":3469:3479  msg.sender */\n      caller\n        /* \"FundMe.sol\":3461:3485  payable(msg.sender).call */\n      0xffffffffffffffffffffffffffffffffffffffff\n      and\n        /* \"FundMe.sol\":3493:3505  refundAmount */\n      dup3\n        /* \"FundMe.sol\":3461:3510  payable(msg.sender).call{value: refundAmount}(\"\") */\n      mload(0x40)\n      tag_138\n      swap1\n      tag_121\n      jump\t// in\n    tag_138:\n      0x00\n      mload(0x40)\n      dup1\n      dup4\n      sub\n      dup2\n      dup6\n      dup8\n      gas\n      call\n      swap3\n      pop\n      pop\n      pop\n      returndatasize\n      dup1\n      0x00\n      dup2\n      eq\n      tag_141\n      jumpi\n      mload(0x40)\n      swap2\n      pop\n      and(add(returndatasize, 0x3f), not(0x1f))\n      dup3\n      add\n      0x40\n      mstore\n      returndatasize\n      dup3\n      mstore\n      returndatasize\n      0x00\n      0x20\n      dup5\n      add\n      returndatacopy\n      jump(tag_140)\n    tag_141:\n      0x60\n      swap2\n      pop\n    tag_140:\n      pop\n        /* \"FundMe.sol\":3442:3510  (bool success, ) = payable(msg.sender).call{value: refundAmount}(\"\") */\n      pop\n      swap1\n      pop\n        /* \"FundMe.sol\":3528:3535  success */\n      dup1\n        /* \"FundMe.sol\":3520:3553  require(success, \"refund failed\") */\n      tag_142\n      jumpi\n      mload(0x40)\n      0x08c379a000000000000000000000000000000000000000000000000000000000\n      dup2\n      mstore\n      0x04\n      add\n      tag_143\n      swap1\n      tag_144\n      jump\t// in\n    tag_143:\n      mload(0x40)\n      dup1\n      swap2\n      sub\n      swap1\n      revert\n    tag_142:\n        /* \"FundMe.sol\":3259:3560  {... */\n      pop\n      pop\n        /* \"FundMe.sol\":3223:3560  function refund() external inWindow {... */\n      jump\t// out\n        /* \"FundMe.sol\":3692:3812  function getMyFund() public view returns (uint256) {... */\n    tag_47:\n        /* \"FundMe.sol\":3734:3741  uint256 */\n      0x00\n        /* \"FundMe.sol\":3800:3805  10**8 */\n      0x05f5e100\n        /* \"FundMe.sol\":3760:3797  ethWei2Usd(funder2Amount[msg.sender]) */\n      tag_146\n        /* \"FundMe.sol\":3771:3784  funder2Amount */\n      0x03\n        /* \"FundMe.sol\":3771:3796  funder2Amount[msg.sender] */\n      0x00\n        /* \"FundMe.sol\":3785:3795  msg.sender */\n      caller\n        /* \"FundMe.sol\":3771:3796  funder2Amount[msg.sender] */\n      0xffffffffffffffffffffffffffffffffffffffff\n      and\n      0xffffffffffffffffffffffffffffffffffffffff\n      and\n      dup2\n      mstore\n      0x20\n      add\n      swap1\n      dup2\n      mstore\n      0x20\n      add\n      0x00\n      keccak256\n      sload\n        /* \"FundMe.sol\":3760:3770  ethWei2Usd */\n      tag_112\n        /* \"FundMe.sol\":3760:3797  ethWei2Usd(funder2Amount[msg.sender]) */\n      jump\t// in\n    tag_146:\n        /* \"FundMe.sol\":3760:3805  ethWei2Usd(funder2Amount[msg.sender]) / 10**8 */\n      tag_147\n      swap2\n      swap1\n      tag_148\n      jump\t// in\n    tag_147:\n        /* \"FundMe.sol\":3753:3805  return ethWei2Usd(funder2Amount[msg.sender]) / 10**8 */\n      swap1\n      pop\n        /* \"FundMe.sol\":3692:3812  function getMyFund() public view returns (uint256) {... */\n      swap1\n      jump\t// out\n        /* \"FundMe.sol\":2425:2500  function changeOwner() public onlyOwner {... */\n    tag_51:\n        /* \"FundMe.sol\":1106:1111  owner */\n      0x02\n      0x00\n      swap1\n      sload\n      swap1\n      0x0100\n      exp\n      swap1\n      div\n      0xffffffffffffffffffffffffffffffffffffffff\n      and\n        /* \"FundMe.sol\":1092:1111  msg.sender == owner */\n      0xffffffffffffffffffffffffffffffffffffffff\n      and\n        /* \"FundMe.sol\":1092:1102  msg.sender */\n      caller\n        /* \"FundMe.sol\":1092:1111  msg.sender == owner */\n      0xffffffffffffffffffffffffffffffffffffffff\n      and\n      eq\n        /* \"FundMe.sol\":1084:1143  require(msg.sender == owner, \"only owner can change owner\") */\n      tag_150\n      jumpi\n      mload(0x40)\n      0x08c379a000000000000000000000000000000000000000000000000000000000\n      dup2\n      mstore\n      0x04\n      add\n      tag_151\n      swap1\n      tag_109\n      jump\t// in\n    tag_151:\n      mload(0x40)\n      dup1\n      swap2\n      sub\n      swap1\n      revert\n    tag_150:\n        /* \"FundMe.sol\":2483:2493  msg.sender */\n      caller\n        /* \"FundMe.sol\":2475:2480  owner */\n      0x02\n      0x00\n        /* \"FundMe.sol\":2475:2493  owner = msg.sender */\n      0x0100\n      exp\n      dup2\n      sload\n      dup2\n      0xffffffffffffffffffffffffffffffffffffffff\n      mul\n      not\n      and\n      swap1\n      dup4\n      0xffffffffffffffffffffffffffffffffffffffff\n      and\n      mul\n      or\n      swap1\n      sstore\n      pop\n        /* \"FundMe.sol\":2425:2500  function changeOwner() public onlyOwner {... */\n      jump\t// out\n        /* \"FundMe.sol\":3818:4018  function setFunder2Amount(address funder, uint256 amount) public onlyOwner {... */\n    tag_56:\n        /* \"FundMe.sol\":1106:1111  owner */\n      0x02\n      0x00\n      swap1\n      sload\n      swap1\n      0x0100\n      exp\n      swap1\n      div\n      0xffffffffffffffffffffffffffffffffffffffff\n      and\n        /* \"FundMe.sol\":1092:1111  msg.sender == owner */\n      0xffffffffffffffffffffffffffffffffffffffff\n      and\n        /* \"FundMe.sol\":1092:1102  msg.sender */\n      caller\n        /* \"FundMe.sol\":1092:1111  msg.sender == owner */\n      0xffffffffffffffffffffffffffffffffffffffff\n      and\n      eq\n        /* \"FundMe.sol\":1084:1143  require(msg.sender == owner, \"only owner can change owner\") */\n      tag_154\n      jumpi\n      mload(0x40)\n      0x08c379a000000000000000000000000000000000000000000000000000000000\n      dup2\n      mstore\n      0x04\n      add\n      tag_155\n      swap1\n      tag_109\n      jump\t// in\n    tag_155:\n      mload(0x40)\n      dup1\n      swap2\n      sub\n      swap1\n      revert\n    tag_154:\n        /* \"FundMe.sol\":3925:3934  erc20Addr */\n      0x08\n      0x00\n      swap1\n      sload\n      swap1\n      0x0100\n      exp\n      swap1\n      div\n      0xffffffffffffffffffffffffffffffffffffffff\n      and\n        /* \"FundMe.sol\":3911:3934  msg.sender == erc20Addr */\n      0xffffffffffffffffffffffffffffffffffffffff\n      and\n        /* \"FundMe.sol\":3911:3921  msg.sender */\n      caller\n        /* \"FundMe.sol\":3911:3934  msg.sender == erc20Addr */\n      0xffffffffffffffffffffffffffffffffffffffff\n      and\n      eq\n        /* \"FundMe.sol\":3903:3971  require(msg.sender == erc20Addr, \"only erc20 can update the amount\") */\n      tag_157\n      jumpi\n      mload(0x40)\n      0x08c379a000000000000000000000000000000000000000000000000000000000\n      dup2\n      mstore\n      0x04\n      add\n      tag_158\n      swap1\n      tag_159\n      jump\t// in\n    tag_158:\n      mload(0x40)\n      dup1\n      swap2\n      sub\n      swap1\n      revert\n    tag_157:\n        /* \"FundMe.sol\":4005:4011  amount */\n      dup1\n        /* \"FundMe.sol\":3981:3994  funder2Amount */\n      0x03\n        /* \"FundMe.sol\":3981:4002  funder2Amount[funder] */\n      0x00\n        /* \"FundMe.sol\":3995:4001  funder */\n      dup5\n        /* \"FundMe.sol\":3981:4002  funder2Amount[funder] */\n      0xffffffffffffffffffffffffffffffffffffffff\n      and\n      0xffffffffffffffffffffffffffffffffffffffff\n      and\n      dup2\n      mstore\n      0x20\n      add\n      swap1\n      dup2\n      mstore\n      0x20\n      add\n      0x00\n      keccak256\n        /* \"FundMe.sol\":3981:4011  funder2Amount[funder] = amount */\n      dup2\n      swap1\n      sstore\n      pop\n        /* \"FundMe.sol\":3818:4018  function setFunder2Amount(address funder, uint256 amount) public onlyOwner {... */\n      pop\n      pop\n      jump\t// out\n        /* \"FundMe.sol\":443:467  uint256 public startTime */\n    tag_59:\n      sload(0x05)\n      dup2\n      jump\t// out\n        /* \"FundMe.sol\":345:393  mapping(address => uint256) public funder2Amount */\n    tag_65:\n      mstore(0x20, 0x03)\n      dup1\n      0x00\n      mstore\n      keccak256(0x00, 0x40)\n      0x00\n      swap2\n      pop\n      swap1\n      pop\n      sload\n      dup2\n      jump\t// out\n        /* \"FundMe.sol\":4124:4226  function contractBalance() public view returns (uint256) {... */\n    tag_69:\n        /* \"FundMe.sol\":4172:4179  uint256 */\n      0x00\n        /* \"FundMe.sol\":4198:4219  address(this).balance */\n      selfbalance\n        /* \"FundMe.sol\":4191:4219  return address(this).balance */\n      swap1\n      pop\n        /* \"FundMe.sol\":4124:4226  function contractBalance() public view returns (uint256) {... */\n      swap1\n      jump\t// out\n        /* \"FundMe.sol\":319:339  address public owner */\n    tag_73:\n      0x02\n      0x00\n      swap1\n      sload\n      swap1\n      0x0100\n      exp\n      swap1\n      div\n      0xffffffffffffffffffffffffffffffffffffffff\n      and\n      dup2\n      jump\t// out\n        /* \"FundMe.sol\":211:251  uint256 public MIN_VALUE = 10000 * 10**8 */\n    tag_77:\n      sload(0x00)\n      dup2\n      jump\t// out\n        /* \"FundMe.sol\":3566:3686  function getBalanceUsd() public view returns (uint256) {... */\n    tag_81:\n        /* \"FundMe.sol\":3612:3619  uint256 */\n      0x00\n        /* \"FundMe.sol\":3674:3679  10**8 */\n      0x05f5e100\n        /* \"FundMe.sol\":3638:3671  ethWei2Usd(address(this).balance) */\n      tag_162\n        /* \"FundMe.sol\":3649:3670  address(this).balance */\n      selfbalance\n        /* \"FundMe.sol\":3638:3648  ethWei2Usd */\n      tag_112\n        /* \"FundMe.sol\":3638:3671  ethWei2Usd(address(this).balance) */\n      jump\t// in\n    tag_162:\n        /* \"FundMe.sol\":3638:3679  ethWei2Usd(address(this).balance) / 10**8 */\n      tag_163\n      swap2\n      swap1\n      tag_148\n      jump\t// in\n    tag_163:\n        /* \"FundMe.sol\":3631:3679  return ethWei2Usd(address(this).balance) / 10**8 */\n      swap1\n      pop\n        /* \"FundMe.sol\":3566:3686  function getBalanceUsd() public view returns (uint256) {... */\n      swap1\n      jump\t// out\n        /* \"FundMe.sol\":2001:2179  function fund() external payable inWindow {... */\n    tag_84:\n        /* \"FundMe.sol\":1236:1250  expirationTime */\n      sload(0x07)\n        /* \"FundMe.sol\":1218:1233  block.timestamp */\n      timestamp\n        /* \"FundMe.sol\":1218:1250  block.timestamp < expirationTime */\n      lt\n        /* \"FundMe.sol\":1197:1305  require(... */\n      tag_165\n      jumpi\n      mload(0x40)\n      0x08c379a000000000000000000000000000000000000000000000000000000000\n      dup2\n      mstore\n      0x04\n      add\n      tag_166\n      swap1\n      tag_131\n      jump\t// in\n    tag_166:\n      mload(0x40)\n      dup1\n      swap2\n      sub\n      swap1\n      revert\n    tag_165:\n        /* \"FundMe.sol\":2086:2095  MIN_VALUE */\n      sload(0x00)\n        /* \"FundMe.sol\":2061:2082  ethWei2Usd(msg.value) */\n      tag_168\n        /* \"FundMe.sol\":2072:2081  msg.value */\n      callvalue\n        /* \"FundMe.sol\":2061:2071  ethWei2Usd */\n      tag_112\n        /* \"FundMe.sol\":2061:2082  ethWei2Usd(msg.value) */\n      jump\t// in\n    tag_168:\n        /* \"FundMe.sol\":2061:2095  ethWei2Usd(msg.value) >= MIN_VALUE */\n      lt\n      iszero\n        /* \"FundMe.sol\":2053:2124  require(ethWei2Usd(msg.value) >= MIN_VALUE, \"please fund more ETH/USD\") */\n      tag_169\n      jumpi\n      mload(0x40)\n      0x08c379a000000000000000000000000000000000000000000000000000000000\n      dup2\n      mstore\n      0x04\n      add\n      tag_170\n      swap1\n      tag_171\n      jump\t// in\n    tag_170:\n      mload(0x40)\n      dup1\n      swap2\n      sub\n      swap1\n      revert\n    tag_169:\n        /* \"FundMe.sol\":2163:2172  msg.value */\n      callvalue\n        /* \"FundMe.sol\":2134:2147  funder2Amount */\n      0x03\n        /* \"FundMe.sol\":2134:2159  funder2Amount[msg.sender] */\n      0x00\n        /* \"FundMe.sol\":2148:2158  msg.sender */\n      caller\n        /* \"FundMe.sol\":2134:2159  funder2Amount[msg.sender] */\n      0xffffffffffffffffffffffffffffffffffffffff\n      and\n      0xffffffffffffffffffffffffffffffffffffffff\n      and\n      dup2\n      mstore\n      0x20\n      add\n      swap1\n      dup2\n      mstore\n      0x20\n      add\n      0x00\n      keccak256\n      0x00\n        /* \"FundMe.sol\":2134:2172  funder2Amount[msg.sender] += msg.value */\n      dup3\n      dup3\n      sload\n      tag_172\n      swap2\n      swap1\n      tag_173\n      jump\t// in\n    tag_172:\n      swap3\n      pop\n      pop\n      dup2\n      swap1\n      sstore\n      pop\n        /* \"FundMe.sol\":2001:2179  function fund() external payable inWindow {... */\n      jump\t// out\n        /* \"FundMe.sol\":1645:1995  function getChainlinkDataFeedLatestAnswer() public view returns (int256) {... */\n    tag_87:\n        /* \"FundMe.sol\":1710:1716  int256 */\n      0x00\n        /* \"FundMe.sol\":1803:1816  int256 answer */\n      0x00\n        /* \"FundMe.sol\":1939:1947  dataFeed */\n      0x04\n      0x00\n      swap1\n      sload\n      swap1\n      0x0100\n      exp\n      swap1\n      div\n      0xffffffffffffffffffffffffffffffffffffffff\n      and\n        /* \"FundMe.sol\":1939:1963  dataFeed.latestRoundData */\n      0xffffffffffffffffffffffffffffffffffffffff\n      and\n      0xfeaf968c\n        /* \"FundMe.sol\":1939:1965  dataFeed.latestRoundData() */\n      mload(0x40)\n      dup2\n      0xffffffff\n      and\n      0xe0\n      shl\n      dup2\n      mstore\n      0x04\n      add\n      0xa0\n      mload(0x40)\n      dup1\n      dup4\n      sub\n      dup2\n      dup7\n      gas\n      staticcall\n      iszero\n      dup1\n      iszero\n      tag_176\n      jumpi\n      returndatacopy(0x00, 0x00, returndatasize)\n      revert(0x00, returndatasize)\n    tag_176:\n      pop\n      pop\n      pop\n      pop\n      mload(0x40)\n      returndatasize\n      not(0x1f)\n      0x1f\n      dup3\n      add\n      and\n      dup3\n      add\n      dup1\n      0x40\n      mstore\n      pop\n      dup2\n      add\n      swap1\n      tag_177\n      swap2\n      swap1\n      tag_178\n      jump\t// in\n    tag_177:\n        /* \"FundMe.sol\":1755:1965  (... */\n      pop\n      pop\n      pop\n      swap2\n      pop\n      pop\n        /* \"FundMe.sol\":1982:1988  answer */\n      dup1\n        /* \"FundMe.sol\":1975:1988  return answer */\n      swap2\n      pop\n      pop\n        /* \"FundMe.sol\":1645:1995  function getChainlinkDataFeedLatestAnswer() public view returns (int256) {... */\n      swap1\n      jump\t// out\n        /* \"FundMe.sol\":275:313  uint256 public TARGET = 100000 * 10**8 */\n    tag_92:\n      sload(0x01)\n      dup2\n      jump\t// out\n        /* \"FundMe.sol\":506:535  uint256 public expirationTime */\n    tag_96:\n      sload(0x07)\n      dup2\n      jump\t// out\n        /* \"FundMe.sol\":4024:4118  function setErc20(address _erc20Addr) public onlyOwner {... */\n    tag_101:\n        /* \"FundMe.sol\":1106:1111  owner */\n      0x02\n      0x00\n      swap1\n      sload\n      swap1\n      0x0100\n      exp\n      swap1\n      div\n      0xffffffffffffffffffffffffffffffffffffffff\n      and\n        /* \"FundMe.sol\":1092:1111  msg.sender == owner */\n      0xffffffffffffffffffffffffffffffffffffffff\n      and\n        /* \"FundMe.sol\":1092:1102  msg.sender */\n      caller\n        /* \"FundMe.sol\":1092:1111  msg.sender == owner */\n      0xffffffffffffffffffffffffffffffffffffffff\n      and\n      eq\n        /* \"FundMe.sol\":1084:1143  require(msg.sender == owner, \"only owner can change owner\") */\n      tag_180\n      jumpi\n      mload(0x40)\n      0x08c379a000000000000000000000000000000000000000000000000000000000\n      dup2\n      mstore\n      0x04\n      add\n      tag_181\n      swap1\n      tag_109\n      jump\t// in\n    tag_181:\n      mload(0x40)\n      dup1\n      swap2\n      sub\n      swap1\n      revert\n    tag_180:\n        /* \"FundMe.sol\":4101:4111  _erc20Addr */\n      dup1\n        /* \"FundMe.sol\":4089:4098  erc20Addr */\n      0x08\n      0x00\n        /* \"FundMe.sol\":4089:4111  erc20Addr = _erc20Addr */\n      0x0100\n      exp\n      dup2\n      sload\n      dup2\n      0xffffffffffffffffffffffffffffffffffffffff\n      mul\n      not\n      and\n      swap1\n      dup4\n      0xffffffffffffffffffffffffffffffffffffffff\n      and\n      mul\n      or\n      swap1\n      sstore\n      pop\n        /* \"FundMe.sol\":4024:4118  function setErc20(address _erc20Addr) public onlyOwner {... */\n      pop\n      jump\t// out\n        /* \"FundMe.sol\":2224:2419  function ethWei2Usd(uint256 eth) private view returns (uint256) {... */\n    tag_112:\n        /* \"FundMe.sol\":2279:2286  uint256 */\n      0x00\n        /* \"FundMe.sol\":2298:2317  uint256 ethWeiPrice */\n      0x00\n        /* \"FundMe.sol\":2330:2364  getChainlinkDataFeedLatestAnswer() */\n      tag_184\n        /* \"FundMe.sol\":2330:2362  getChainlinkDataFeedLatestAnswer */\n      tag_87\n        /* \"FundMe.sol\":2330:2364  getChainlinkDataFeedLatestAnswer() */\n      jump\t// in\n    tag_184:\n        /* \"FundMe.sol\":2298:2365  uint256 ethWeiPrice = (uint256)(getChainlinkDataFeedLatestAnswer()) */\n      swap1\n      pop\n        /* \"FundMe.sol\":2405:2411  10**18 */\n      0x0de0b6b3a7640000\n        /* \"FundMe.sol\":2389:2400  ethWeiPrice */\n      dup2\n        /* \"FundMe.sol\":2383:2386  eth */\n      dup5\n        /* \"FundMe.sol\":2383:2400  eth * ethWeiPrice */\n      tag_185\n      swap2\n      swap1\n      tag_186\n      jump\t// in\n    tag_185:\n        /* \"FundMe.sol\":2382:2412  (eth * ethWeiPrice) / (10**18) */\n      tag_187\n      swap2\n      swap1\n      tag_148\n      jump\t// in\n    tag_187:\n        /* \"FundMe.sol\":2375:2412  return (eth * ethWeiPrice) / (10**18) */\n      swap2\n      pop\n      pop\n        /* \"FundMe.sol\":2224:2419  function ethWei2Usd(uint256 eth) private view returns (uint256) {... */\n      swap2\n      swap1\n      pop\n      jump\t// out\n        /* \"#utility.yul\":7:84   */\n    tag_188:\n        /* \"#utility.yul\":44:51   */\n      0x00\n        /* \"#utility.yul\":73:78   */\n      dup2\n        /* \"#utility.yul\":62:78   */\n      swap1\n      pop\n        /* \"#utility.yul\":7:84   */\n      swap2\n      swap1\n      pop\n      jump\t// out\n        /* \"#utility.yul\":90:208   */\n    tag_189:\n        /* \"#utility.yul\":177:201   */\n      tag_239\n        /* \"#utility.yul\":195:200   */\n      dup2\n        /* \"#utility.yul\":177:201   */\n      tag_188\n      jump\t// in\n    tag_239:\n        /* \"#utility.yul\":172:175   */\n      dup3\n        /* \"#utility.yul\":165:202   */\n      mstore\n        /* \"#utility.yul\":90:208   */\n      pop\n      pop\n      jump\t// out\n        /* \"#utility.yul\":214:436   */\n    tag_28:\n        /* \"#utility.yul\":307:311   */\n      0x00\n        /* \"#utility.yul\":345:347   */\n      0x20\n        /* \"#utility.yul\":334:343   */\n      dup3\n        /* \"#utility.yul\":330:348   */\n      add\n        /* \"#utility.yul\":322:348   */\n      swap1\n      pop\n        /* \"#utility.yul\":358:429   */\n      tag_241\n        /* \"#utility.yul\":426:427   */\n      0x00\n        /* \"#utility.yul\":415:424   */\n      dup4\n        /* \"#utility.yul\":411:428   */\n      add\n        /* \"#utility.yul\":402:408   */\n      dup5\n        /* \"#utility.yul\":358:429   */\n      tag_189\n      jump\t// in\n    tag_241:\n        /* \"#utility.yul\":214:436   */\n      swap3\n      swap2\n      pop\n      pop\n      jump\t// out\n        /* \"#utility.yul\":442:568   */\n    tag_190:\n        /* \"#utility.yul\":479:486   */\n      0x00\n        /* \"#utility.yul\":519:561   */\n      0xffffffffffffffffffffffffffffffffffffffff\n        /* \"#utility.yul\":512:517   */\n      dup3\n        /* \"#utility.yul\":508:562   */\n      and\n        /* \"#utility.yul\":497:562   */\n      swap1\n      pop\n        /* \"#utility.yul\":442:568   */\n      swap2\n      swap1\n      pop\n      jump\t// out\n        /* \"#utility.yul\":574:670   */\n    tag_191:\n        /* \"#utility.yul\":611:618   */\n      0x00\n        /* \"#utility.yul\":640:664   */\n      tag_244\n        /* \"#utility.yul\":658:663   */\n      dup3\n        /* \"#utility.yul\":640:664   */\n      tag_190\n      jump\t// in\n    tag_244:\n        /* \"#utility.yul\":629:664   */\n      swap1\n      pop\n        /* \"#utility.yul\":574:670   */\n      swap2\n      swap1\n      pop\n      jump\t// out\n        /* \"#utility.yul\":676:794   */\n    tag_192:\n        /* \"#utility.yul\":763:787   */\n      tag_246\n        /* \"#utility.yul\":781:786   */\n      dup2\n        /* \"#utility.yul\":763:787   */\n      tag_191\n      jump\t// in\n    tag_246:\n        /* \"#utility.yul\":758:761   */\n      dup3\n        /* \"#utility.yul\":751:788   */\n      mstore\n        /* \"#utility.yul\":676:794   */\n      pop\n      pop\n      jump\t// out\n        /* \"#utility.yul\":800:1022   */\n    tag_36:\n        /* \"#utility.yul\":893:897   */\n      0x00\n        /* \"#utility.yul\":931:933   */\n      0x20\n        /* \"#utility.yul\":920:929   */\n      dup3\n        /* \"#utility.yul\":916:934   */\n      add\n        /* \"#utility.yul\":908:934   */\n      swap1\n      pop\n        /* \"#utility.yul\":944:1015   */\n      tag_248\n        /* \"#utility.yul\":1012:1013   */\n      0x00\n        /* \"#utility.yul\":1001:1010   */\n      dup4\n        /* \"#utility.yul\":997:1014   */\n      add\n        /* \"#utility.yul\":988:994   */\n      dup5\n        /* \"#utility.yul\":944:1015   */\n      tag_192\n      jump\t// in\n    tag_248:\n        /* \"#utility.yul\":800:1022   */\n      swap3\n      swap2\n      pop\n      pop\n      jump\t// out\n        /* \"#utility.yul\":1028:1118   */\n    tag_193:\n        /* \"#utility.yul\":1062:1069   */\n      0x00\n        /* \"#utility.yul\":1105:1110   */\n      dup2\n        /* \"#utility.yul\":1098:1111   */\n      iszero\n        /* \"#utility.yul\":1091:1112   */\n      iszero\n        /* \"#utility.yul\":1080:1112   */\n      swap1\n      pop\n        /* \"#utility.yul\":1028:1118   */\n      swap2\n      swap1\n      pop\n      jump\t// out\n        /* \"#utility.yul\":1124:1233   */\n    tag_194:\n        /* \"#utility.yul\":1205:1226   */\n      tag_251\n        /* \"#utility.yul\":1220:1225   */\n      dup2\n        /* \"#utility.yul\":1205:1226   */\n      tag_193\n      jump\t// in\n    tag_251:\n        /* \"#utility.yul\":1200:1203   */\n      dup3\n        /* \"#utility.yul\":1193:1227   */\n      mstore\n        /* \"#utility.yul\":1124:1233   */\n      pop\n      pop\n      jump\t// out\n        /* \"#utility.yul\":1239:1449   */\n    tag_41:\n        /* \"#utility.yul\":1326:1330   */\n      0x00\n        /* \"#utility.yul\":1364:1366   */\n      0x20\n        /* \"#utility.yul\":1353:1362   */\n      dup3\n        /* \"#utility.yul\":1349:1367   */\n      add\n        /* \"#utility.yul\":1341:1367   */\n      swap1\n      pop\n        /* \"#utility.yul\":1377:1442   */\n      tag_253\n        /* \"#utility.yul\":1439:1440   */\n      0x00\n        /* \"#utility.yul\":1428:1437   */\n      dup4\n        /* \"#utility.yul\":1424:1441   */\n      add\n        /* \"#utility.yul\":1415:1421   */\n      dup5\n        /* \"#utility.yul\":1377:1442   */\n      tag_194\n      jump\t// in\n    tag_253:\n        /* \"#utility.yul\":1239:1449   */\n      swap3\n      swap2\n      pop\n      pop\n      jump\t// out\n        /* \"#utility.yul\":1536:1653   */\n    tag_196:\n        /* \"#utility.yul\":1645:1646   */\n      0x00\n        /* \"#utility.yul\":1642:1643   */\n      0x00\n        /* \"#utility.yul\":1635:1647   */\n      revert\n        /* \"#utility.yul\":1782:1904   */\n    tag_198:\n        /* \"#utility.yul\":1855:1879   */\n      tag_258\n        /* \"#utility.yul\":1873:1878   */\n      dup2\n        /* \"#utility.yul\":1855:1879   */\n      tag_191\n      jump\t// in\n    tag_258:\n        /* \"#utility.yul\":1848:1853   */\n      dup2\n        /* \"#utility.yul\":1845:1880   */\n      eq\n        /* \"#utility.yul\":1835:1898   */\n      tag_259\n      jumpi\n        /* \"#utility.yul\":1894:1895   */\n      0x00\n        /* \"#utility.yul\":1891:1892   */\n      0x00\n        /* \"#utility.yul\":1884:1896   */\n      revert\n        /* \"#utility.yul\":1835:1898   */\n    tag_259:\n        /* \"#utility.yul\":1782:1904   */\n      pop\n      jump\t// out\n        /* \"#utility.yul\":1910:2049   */\n    tag_199:\n        /* \"#utility.yul\":1956:1961   */\n      0x00\n        /* \"#utility.yul\":1994:2000   */\n      dup2\n        /* \"#utility.yul\":1981:2001   */\n      calldataload\n        /* \"#utility.yul\":1972:2001   */\n      swap1\n      pop\n        /* \"#utility.yul\":2010:2043   */\n      tag_261\n        /* \"#utility.yul\":2037:2042   */\n      dup2\n        /* \"#utility.yul\":2010:2043   */\n      tag_198\n      jump\t// in\n    tag_261:\n        /* \"#utility.yul\":1910:2049   */\n      swap3\n      swap2\n      pop\n      pop\n      jump\t// out\n        /* \"#utility.yul\":2055:2177   */\n    tag_200:\n        /* \"#utility.yul\":2128:2152   */\n      tag_263\n        /* \"#utility.yul\":2146:2151   */\n      dup2\n        /* \"#utility.yul\":2128:2152   */\n      tag_188\n      jump\t// in\n    tag_263:\n        /* \"#utility.yul\":2121:2126   */\n      dup2\n        /* \"#utility.yul\":2118:2153   */\n      eq\n        /* \"#utility.yul\":2108:2171   */\n      tag_264\n      jumpi\n        /* \"#utility.yul\":2167:2168   */\n      0x00\n        /* \"#utility.yul\":2164:2165   */\n      0x00\n        /* \"#utility.yul\":2157:2169   */\n      revert\n        /* \"#utility.yul\":2108:2171   */\n    tag_264:\n        /* \"#utility.yul\":2055:2177   */\n      pop\n      jump\t// out\n        /* \"#utility.yul\":2183:2322   */\n    tag_201:\n        /* \"#utility.yul\":2229:2234   */\n      0x00\n        /* \"#utility.yul\":2267:2273   */\n      dup2\n        /* \"#utility.yul\":2254:2274   */\n      calldataload\n        /* \"#utility.yul\":2245:2274   */\n      swap1\n      pop\n        /* \"#utility.yul\":2283:2316   */\n      tag_266\n        /* \"#utility.yul\":2310:2315   */\n      dup2\n        /* \"#utility.yul\":2283:2316   */\n      tag_200\n      jump\t// in\n    tag_266:\n        /* \"#utility.yul\":2183:2322   */\n      swap3\n      swap2\n      pop\n      pop\n      jump\t// out\n        /* \"#utility.yul\":2328:2802   */\n    tag_55:\n        /* \"#utility.yul\":2396:2402   */\n      0x00\n        /* \"#utility.yul\":2404:2410   */\n      0x00\n        /* \"#utility.yul\":2453:2455   */\n      0x40\n        /* \"#utility.yul\":2441:2450   */\n      dup4\n        /* \"#utility.yul\":2432:2439   */\n      dup6\n        /* \"#utility.yul\":2428:2451   */\n      sub\n        /* \"#utility.yul\":2424:2456   */\n      slt\n        /* \"#utility.yul\":2421:2540   */\n      iszero\n      tag_268\n      jumpi\n        /* \"#utility.yul\":2459:2538   */\n      tag_269\n      tag_196\n      jump\t// in\n    tag_269:\n        /* \"#utility.yul\":2421:2540   */\n    tag_268:\n        /* \"#utility.yul\":2579:2580   */\n      0x00\n        /* \"#utility.yul\":2604:2657   */\n      tag_270\n        /* \"#utility.yul\":2649:2656   */\n      dup6\n        /* \"#utility.yul\":2640:2646   */\n      dup3\n        /* \"#utility.yul\":2629:2638   */\n      dup7\n        /* \"#utility.yul\":2625:2647   */\n      add\n        /* \"#utility.yul\":2604:2657   */\n      tag_199\n      jump\t// in\n    tag_270:\n        /* \"#utility.yul\":2594:2657   */\n      swap3\n      pop\n        /* \"#utility.yul\":2550:2667   */\n      pop\n        /* \"#utility.yul\":2706:2708   */\n      0x20\n        /* \"#utility.yul\":2732:2785   */\n      tag_271\n        /* \"#utility.yul\":2777:2784   */\n      dup6\n        /* \"#utility.yul\":2768:2774   */\n      dup3\n        /* \"#utility.yul\":2757:2766   */\n      dup7\n        /* \"#utility.yul\":2753:2775   */\n      add\n        /* \"#utility.yul\":2732:2785   */\n      tag_201\n      jump\t// in\n    tag_271:\n        /* \"#utility.yul\":2722:2785   */\n      swap2\n      pop\n        /* \"#utility.yul\":2677:2795   */\n      pop\n        /* \"#utility.yul\":2328:2802   */\n      swap3\n      pop\n      swap3\n      swap1\n      pop\n      jump\t// out\n        /* \"#utility.yul\":2808:3137   */\n    tag_64:\n        /* \"#utility.yul\":2867:2873   */\n      0x00\n        /* \"#utility.yul\":2916:2918   */\n      0x20\n        /* \"#utility.yul\":2904:2913   */\n      dup3\n        /* \"#utility.yul\":2895:2902   */\n      dup5\n        /* \"#utility.yul\":2891:2914   */\n      sub\n        /* \"#utility.yul\":2887:2919   */\n      slt\n        /* \"#utility.yul\":2884:3003   */\n      iszero\n      tag_273\n      jumpi\n        /* \"#utility.yul\":2922:3001   */\n      tag_274\n      tag_196\n      jump\t// in\n    tag_274:\n        /* \"#utility.yul\":2884:3003   */\n    tag_273:\n        /* \"#utility.yul\":3042:3043   */\n      0x00\n        /* \"#utility.yul\":3067:3120   */\n      tag_275\n        /* \"#utility.yul\":3112:3119   */\n      dup5\n        /* \"#utility.yul\":3103:3109   */\n      dup3\n        /* \"#utility.yul\":3092:3101   */\n      dup6\n        /* \"#utility.yul\":3088:3110   */\n      add\n        /* \"#utility.yul\":3067:3120   */\n      tag_199\n      jump\t// in\n    tag_275:\n        /* \"#utility.yul\":3057:3120   */\n      swap2\n      pop\n        /* \"#utility.yul\":3013:3130   */\n      pop\n        /* \"#utility.yul\":2808:3137   */\n      swap3\n      swap2\n      pop\n      pop\n      jump\t// out\n        /* \"#utility.yul\":3143:3219   */\n    tag_202:\n        /* \"#utility.yul\":3179:3186   */\n      0x00\n        /* \"#utility.yul\":3208:3213   */\n      dup2\n        /* \"#utility.yul\":3197:3213   */\n      swap1\n      pop\n        /* \"#utility.yul\":3143:3219   */\n      swap2\n      swap1\n      pop\n      jump\t// out\n        /* \"#utility.yul\":3225:3340   */\n    tag_203:\n        /* \"#utility.yul\":3310:3333   */\n      tag_278\n        /* \"#utility.yul\":3327:3332   */\n      dup2\n        /* \"#utility.yul\":3310:3333   */\n      tag_202\n      jump\t// in\n    tag_278:\n        /* \"#utility.yul\":3305:3308   */\n      dup3\n        /* \"#utility.yul\":3298:3334   */\n      mstore\n        /* \"#utility.yul\":3225:3340   */\n      pop\n      pop\n      jump\t// out\n        /* \"#utility.yul\":3346:3564   */\n    tag_89:\n        /* \"#utility.yul\":3437:3441   */\n      0x00\n        /* \"#utility.yul\":3475:3477   */\n      0x20\n        /* \"#utility.yul\":3464:3473   */\n      dup3\n        /* \"#utility.yul\":3460:3478   */\n      add\n        /* \"#utility.yul\":3452:3478   */\n      swap1\n      pop\n        /* \"#utility.yul\":3488:3557   */\n      tag_280\n        /* \"#utility.yul\":3554:3555   */\n      0x00\n        /* \"#utility.yul\":3543:3552   */\n      dup4\n        /* \"#utility.yul\":3539:3556   */\n      add\n        /* \"#utility.yul\":3530:3536   */\n      dup5\n        /* \"#utility.yul\":3488:3557   */\n      tag_203\n      jump\t// in\n    tag_280:\n        /* \"#utility.yul\":3346:3564   */\n      swap3\n      swap2\n      pop\n      pop\n      jump\t// out\n        /* \"#utility.yul\":3570:3739   */\n    tag_204:\n        /* \"#utility.yul\":3654:3665   */\n      0x00\n        /* \"#utility.yul\":3688:3694   */\n      dup3\n        /* \"#utility.yul\":3683:3686   */\n      dup3\n        /* \"#utility.yul\":3676:3695   */\n      mstore\n        /* \"#utility.yul\":3728:3732   */\n      0x20\n        /* \"#utility.yul\":3723:3726   */\n      dup3\n        /* \"#utility.yul\":3719:3733   */\n      add\n        /* \"#utility.yul\":3704:3733   */\n      swap1\n      pop\n        /* \"#utility.yul\":3570:3739   */\n      swap3\n      swap2\n      pop\n      pop\n      jump\t// out\n        /* \"#utility.yul\":3745:3968   */\n    tag_205:\n        /* \"#utility.yul\":3885:3919   */\n      0x706c65617365207761697420666f72207468652070726f6a6563742065787069\n        /* \"#utility.yul\":3881:3882   */\n      0x00\n        /* \"#utility.yul\":3873:3879   */\n      dup3\n        /* \"#utility.yul\":3869:3883   */\n      add\n        /* \"#utility.yul\":3862:3920   */\n      mstore\n        /* \"#utility.yul\":3954:3960   */\n      0x7265642100000000000000000000000000000000000000000000000000000000\n        /* \"#utility.yul\":3949:3951   */\n      0x20\n        /* \"#utility.yul\":3941:3947   */\n      dup3\n        /* \"#utility.yul\":3937:3952   */\n      add\n        /* \"#utility.yul\":3930:3961   */\n      mstore\n        /* \"#utility.yul\":3745:3968   */\n      pop\n      jump\t// out\n        /* \"#utility.yul\":3974:4340   */\n    tag_206:\n        /* \"#utility.yul\":4116:4119   */\n      0x00\n        /* \"#utility.yul\":4137:4204   */\n      tag_284\n        /* \"#utility.yul\":4201:4203   */\n      0x24\n        /* \"#utility.yul\":4196:4199   */\n      dup4\n        /* \"#utility.yul\":4137:4204   */\n      tag_204\n      jump\t// in\n    tag_284:\n        /* \"#utility.yul\":4130:4204   */\n      swap2\n      pop\n        /* \"#utility.yul\":4213:4306   */\n      tag_285\n        /* \"#utility.yul\":4302:4305   */\n      dup3\n        /* \"#utility.yul\":4213:4306   */\n      tag_205\n      jump\t// in\n    tag_285:\n        /* \"#utility.yul\":4331:4333   */\n      0x40\n        /* \"#utility.yul\":4326:4329   */\n      dup3\n        /* \"#utility.yul\":4322:4334   */\n      add\n        /* \"#utility.yul\":4315:4334   */\n      swap1\n      pop\n        /* \"#utility.yul\":3974:4340   */\n      swap2\n      swap1\n      pop\n      jump\t// out\n        /* \"#utility.yul\":4346:4765   */\n    tag_105:\n        /* \"#utility.yul\":4512:4516   */\n      0x00\n        /* \"#utility.yul\":4550:4552   */\n      0x20\n        /* \"#utility.yul\":4539:4548   */\n      dup3\n        /* \"#utility.yul\":4535:4553   */\n      add\n        /* \"#utility.yul\":4527:4553   */\n      swap1\n      pop\n        /* \"#utility.yul\":4599:4608   */\n      dup2\n        /* \"#utility.yul\":4593:4597   */\n      dup2\n        /* \"#utility.yul\":4589:4609   */\n      sub\n        /* \"#utility.yul\":4585:4586   */\n      0x00\n        /* \"#utility.yul\":4574:4583   */\n      dup4\n        /* \"#utility.yul\":4570:4587   */\n      add\n        /* \"#utility.yul\":4563:4610   */\n      mstore\n        /* \"#utility.yul\":4627:4758   */\n      tag_287\n        /* \"#utility.yul\":4753:4757   */\n      dup2\n        /* \"#utility.yul\":4627:4758   */\n      tag_206\n      jump\t// in\n    tag_287:\n        /* \"#utility.yul\":4619:4758   */\n      swap1\n      pop\n        /* \"#utility.yul\":4346:4765   */\n      swap2\n      swap1\n      pop\n      jump\t// out\n        /* \"#utility.yul\":4771:4948   */\n    tag_207:\n        /* \"#utility.yul\":4911:4940   */\n      0x6f6e6c79206f776e65722063616e206368616e6765206f776e65720000000000\n        /* \"#utility.yul\":4907:4908   */\n      0x00\n        /* \"#utility.yul\":4899:4905   */\n      dup3\n        /* \"#utility.yul\":4895:4909   */\n      add\n        /* \"#utility.yul\":4888:4941   */\n      mstore\n        /* \"#utility.yul\":4771:4948   */\n      pop\n      jump\t// out\n        /* \"#utility.yul\":4954:5320   */\n    tag_208:\n        /* \"#utility.yul\":5096:5099   */\n      0x00\n        /* \"#utility.yul\":5117:5184   */\n      tag_290\n        /* \"#utility.yul\":5181:5183   */\n      0x1b\n        /* \"#utility.yul\":5176:5179   */\n      dup4\n        /* \"#utility.yul\":5117:5184   */\n      tag_204\n      jump\t// in\n    tag_290:\n        /* \"#utility.yul\":5110:5184   */\n      swap2\n      pop\n        /* \"#utility.yul\":5193:5286   */\n      tag_291\n        /* \"#utility.yul\":5282:5285   */\n      dup3\n        /* \"#utility.yul\":5193:5286   */\n      tag_207\n      jump\t// in\n    tag_291:\n        /* \"#utility.yul\":5311:5313   */\n      0x20\n        /* \"#utility.yul\":5306:5309   */\n      dup3\n        /* \"#utility.yul\":5302:5314   */\n      add\n        /* \"#utility.yul\":5295:5314   */\n      swap1\n      pop\n        /* \"#utility.yul\":4954:5320   */\n      swap2\n      swap1\n      pop\n      jump\t// out\n        /* \"#utility.yul\":5326:5745   */\n    tag_109:\n        /* \"#utility.yul\":5492:5496   */\n      0x00\n        /* \"#utility.yul\":5530:5532   */\n      0x20\n        /* \"#utility.yul\":5519:5528   */\n      dup3\n        /* \"#utility.yul\":5515:5533   */\n      add\n        /* \"#utility.yul\":5507:5533   */\n      swap1\n      pop\n        /* \"#utility.yul\":5579:5588   */\n      dup2\n        /* \"#utility.yul\":5573:5577   */\n      dup2\n        /* \"#utility.yul\":5569:5589   */\n      sub\n        /* \"#utility.yul\":5565:5566   */\n      0x00\n        /* \"#utility.yul\":5554:5563   */\n      dup4\n        /* \"#utility.yul\":5550:5567   */\n      add\n        /* \"#utility.yul\":5543:5590   */\n      mstore\n        /* \"#utility.yul\":5607:5738   */\n      tag_293\n        /* \"#utility.yul\":5733:5737   */\n      dup2\n        /* \"#utility.yul\":5607:5738   */\n      tag_208\n      jump\t// in\n    tag_293:\n        /* \"#utility.yul\":5599:5738   */\n      swap1\n      pop\n        /* \"#utility.yul\":5326:5745   */\n      swap2\n      swap1\n      pop\n      jump\t// out\n        /* \"#utility.yul\":5751:5971   */\n    tag_209:\n        /* \"#utility.yul\":5891:5925   */\n      0x796f7520646f6e2774206861766520656e6f7567682045544820746f20647261\n        /* \"#utility.yul\":5887:5888   */\n      0x00\n        /* \"#utility.yul\":5879:5885   */\n      dup3\n        /* \"#utility.yul\":5875:5889   */\n      add\n        /* \"#utility.yul\":5868:5926   */\n      mstore\n        /* \"#utility.yul\":5960:5963   */\n      0x7700000000000000000000000000000000000000000000000000000000000000\n        /* \"#utility.yul\":5955:5957   */\n      0x20\n        /* \"#utility.yul\":5947:5953   */\n      dup3\n        /* \"#utility.yul\":5943:5958   */\n      add\n        /* \"#utility.yul\":5936:5964   */\n      mstore\n        /* \"#utility.yul\":5751:5971   */\n      pop\n      jump\t// out\n        /* \"#utility.yul\":5977:6343   */\n    tag_210:\n        /* \"#utility.yul\":6119:6122   */\n      0x00\n        /* \"#utility.yul\":6140:6207   */\n      tag_296\n        /* \"#utility.yul\":6204:6206   */\n      0x21\n        /* \"#utility.yul\":6199:6202   */\n      dup4\n        /* \"#utility.yul\":6140:6207   */\n      tag_204\n      jump\t// in\n    tag_296:\n        /* \"#utility.yul\":6133:6207   */\n      swap2\n      pop\n        /* \"#utility.yul\":6216:6309   */\n      tag_297\n        /* \"#utility.yul\":6305:6308   */\n      dup3\n        /* \"#utility.yul\":6216:6309   */\n      tag_209\n      jump\t// in\n    tag_297:\n        /* \"#utility.yul\":6334:6336   */\n      0x40\n        /* \"#utility.yul\":6329:6332   */\n      dup3\n        /* \"#utility.yul\":6325:6337   */\n      add\n        /* \"#utility.yul\":6318:6337   */\n      swap1\n      pop\n        /* \"#utility.yul\":5977:6343   */\n      swap2\n      swap1\n      pop\n      jump\t// out\n        /* \"#utility.yul\":6349:6768   */\n    tag_115:\n        /* \"#utility.yul\":6515:6519   */\n      0x00\n        /* \"#utility.yul\":6553:6555   */\n      0x20\n        /* \"#utility.yul\":6542:6551   */\n      dup3\n        /* \"#utility.yul\":6538:6556   */\n      add\n        /* \"#utility.yul\":6530:6556   */\n      swap1\n      pop\n        /* \"#utility.yul\":6602:6611   */\n      dup2\n        /* \"#utility.yul\":6596:6600   */\n      dup2\n        /* \"#utility.yul\":6592:6612   */\n      sub\n        /* \"#utility.yul\":6588:6589   */\n      0x00\n        /* \"#utility.yul\":6577:6586   */\n      dup4\n        /* \"#utility.yul\":6573:6590   */\n      add\n        /* \"#utility.yul\":6566:6613   */\n      mstore\n        /* \"#utility.yul\":6630:6761   */\n      tag_299\n        /* \"#utility.yul\":6756:6760   */\n      dup2\n        /* \"#utility.yul\":6630:6761   */\n      tag_210\n      jump\t// in\n    tag_299:\n        /* \"#utility.yul\":6622:6761   */\n      swap1\n      pop\n        /* \"#utility.yul\":6349:6768   */\n      swap2\n      swap1\n      pop\n      jump\t// out\n        /* \"#utility.yul\":6774:6947   */\n    tag_211:\n        /* \"#utility.yul\":6914:6939   */\n      0x6f6e6c79206f776e65722063616e206765742066756e64000000000000000000\n        /* \"#utility.yul\":6910:6911   */\n      0x00\n        /* \"#utility.yul\":6902:6908   */\n      dup3\n        /* \"#utility.yul\":6898:6912   */\n      add\n        /* \"#utility.yul\":6891:6940   */\n      mstore\n        /* \"#utility.yul\":6774:6947   */\n      pop\n      jump\t// out\n        /* \"#utility.yul\":6953:7319   */\n    tag_212:\n        /* \"#utility.yul\":7095:7098   */\n      0x00\n        /* \"#utility.yul\":7116:7183   */\n      tag_302\n        /* \"#utility.yul\":7180:7182   */\n      0x17\n        /* \"#utility.yul\":7175:7178   */\n      dup4\n        /* \"#utility.yul\":7116:7183   */\n      tag_204\n      jump\t// in\n    tag_302:\n        /* \"#utility.yul\":7109:7183   */\n      swap2\n      pop\n        /* \"#utility.yul\":7192:7285   */\n      tag_303\n        /* \"#utility.yul\":7281:7284   */\n      dup3\n        /* \"#utility.yul\":7192:7285   */\n      tag_211\n      jump\t// in\n    tag_303:\n        /* \"#utility.yul\":7310:7312   */\n      0x20\n        /* \"#utility.yul\":7305:7308   */\n      dup3\n        /* \"#utility.yul\":7301:7313   */\n      add\n        /* \"#utility.yul\":7294:7313   */\n      swap1\n      pop\n        /* \"#utility.yul\":6953:7319   */\n      swap2\n      swap1\n      pop\n      jump\t// out\n        /* \"#utility.yul\":7325:7744   */\n    tag_118:\n        /* \"#utility.yul\":7491:7495   */\n      0x00\n        /* \"#utility.yul\":7529:7531   */\n      0x20\n        /* \"#utility.yul\":7518:7527   */\n      dup3\n        /* \"#utility.yul\":7514:7532   */\n      add\n        /* \"#utility.yul\":7506:7532   */\n      swap1\n      pop\n        /* \"#utility.yul\":7578:7587   */\n      dup2\n        /* \"#utility.yul\":7572:7576   */\n      dup2\n        /* \"#utility.yul\":7568:7588   */\n      sub\n        /* \"#utility.yul\":7564:7565   */\n      0x00\n        /* \"#utility.yul\":7553:7562   */\n      dup4\n        /* \"#utility.yul\":7549:7566   */\n      add\n        /* \"#utility.yul\":7542:7589   */\n      mstore\n        /* \"#utility.yul\":7606:7737   */\n      tag_305\n        /* \"#utility.yul\":7732:7736   */\n      dup2\n        /* \"#utility.yul\":7606:7737   */\n      tag_212\n      jump\t// in\n    tag_305:\n        /* \"#utility.yul\":7598:7737   */\n      swap1\n      pop\n        /* \"#utility.yul\":7325:7744   */\n      swap2\n      swap1\n      pop\n      jump\t// out\n        /* \"#utility.yul\":7750:7897   */\n    tag_213:\n        /* \"#utility.yul\":7851:7862   */\n      0x00\n        /* \"#utility.yul\":7888:7891   */\n      dup2\n        /* \"#utility.yul\":7873:7891   */\n      swap1\n      pop\n        /* \"#utility.yul\":7750:7897   */\n      swap3\n      swap2\n      pop\n      pop\n      jump\t// out\n        /* \"#utility.yul\":7903:8017   */\n    tag_214:\n      pop\n      jump\t// out\n        /* \"#utility.yul\":8023:8421   */\n    tag_215:\n        /* \"#utility.yul\":8182:8185   */\n      0x00\n        /* \"#utility.yul\":8203:8286   */\n      tag_309\n        /* \"#utility.yul\":8284:8285   */\n      0x00\n        /* \"#utility.yul\":8279:8282   */\n      dup4\n        /* \"#utility.yul\":8203:8286   */\n      tag_213\n      jump\t// in\n    tag_309:\n        /* \"#utility.yul\":8196:8286   */\n      swap2\n      pop\n        /* \"#utility.yul\":8295:8388   */\n      tag_310\n        /* \"#utility.yul\":8384:8387   */\n      dup3\n        /* \"#utility.yul\":8295:8388   */\n      tag_214\n      jump\t// in\n    tag_310:\n        /* \"#utility.yul\":8413:8414   */\n      0x00\n        /* \"#utility.yul\":8408:8411   */\n      dup3\n        /* \"#utility.yul\":8404:8415   */\n      add\n        /* \"#utility.yul\":8397:8415   */\n      swap1\n      pop\n        /* \"#utility.yul\":8023:8421   */\n      swap2\n      swap1\n      pop\n      jump\t// out\n        /* \"#utility.yul\":8427:8806   */\n    tag_121:\n        /* \"#utility.yul\":8611:8614   */\n      0x00\n        /* \"#utility.yul\":8633:8780   */\n      tag_312\n        /* \"#utility.yul\":8776:8779   */\n      dup3\n        /* \"#utility.yul\":8633:8780   */\n      tag_215\n      jump\t// in\n    tag_312:\n        /* \"#utility.yul\":8626:8780   */\n      swap2\n      pop\n        /* \"#utility.yul\":8797:8800   */\n      dup2\n        /* \"#utility.yul\":8790:8800   */\n      swap1\n      pop\n        /* \"#utility.yul\":8427:8806   */\n      swap2\n      swap1\n      pop\n      jump\t// out\n        /* \"#utility.yul\":8812:8968   */\n    tag_216:\n        /* \"#utility.yul\":8952:8960   */\n      0x6661696c65640000000000000000000000000000000000000000000000000000\n        /* \"#utility.yul\":8948:8949   */\n      0x00\n        /* \"#utility.yul\":8940:8946   */\n      dup3\n        /* \"#utility.yul\":8936:8950   */\n      add\n        /* \"#utility.yul\":8929:8961   */\n      mstore\n        /* \"#utility.yul\":8812:8968   */\n      pop\n      jump\t// out\n        /* \"#utility.yul\":8974:9339   */\n    tag_217:\n        /* \"#utility.yul\":9116:9119   */\n      0x00\n        /* \"#utility.yul\":9137:9203   */\n      tag_315\n        /* \"#utility.yul\":9201:9202   */\n      0x06\n        /* \"#utility.yul\":9196:9199   */\n      dup4\n        /* \"#utility.yul\":9137:9203   */\n      tag_204\n      jump\t// in\n    tag_315:\n        /* \"#utility.yul\":9130:9203   */\n      swap2\n      pop\n        /* \"#utility.yul\":9212:9305   */\n      tag_316\n        /* \"#utility.yul\":9301:9304   */\n      dup3\n        /* \"#utility.yul\":9212:9305   */\n      tag_216\n      jump\t// in\n    tag_316:\n        /* \"#utility.yul\":9330:9332   */\n      0x20\n        /* \"#utility.yul\":9325:9328   */\n      dup3\n        /* \"#utility.yul\":9321:9333   */\n      add\n        /* \"#utility.yul\":9314:9333   */\n      swap1\n      pop\n        /* \"#utility.yul\":8974:9339   */\n      swap2\n      swap1\n      pop\n      jump\t// out\n        /* \"#utility.yul\":9345:9764   */\n    tag_127:\n        /* \"#utility.yul\":9511:9515   */\n      0x00\n        /* \"#utility.yul\":9549:9551   */\n      0x20\n        /* \"#utility.yul\":9538:9547   */\n      dup3\n        /* \"#utility.yul\":9534:9552   */\n      add\n        /* \"#utility.yul\":9526:9552   */\n      swap1\n      pop\n        /* \"#utility.yul\":9598:9607   */\n      dup2\n        /* \"#utility.yul\":9592:9596   */\n      dup2\n        /* \"#utility.yul\":9588:9608   */\n      sub\n        /* \"#utility.yul\":9584:9585   */\n      0x00\n        /* \"#utility.yul\":9573:9582   */\n      dup4\n        /* \"#utility.yul\":9569:9586   */\n      add\n        /* \"#utility.yul\":9562:9609   */\n      mstore\n        /* \"#utility.yul\":9626:9757   */\n      tag_318\n        /* \"#utility.yul\":9752:9756   */\n      dup2\n        /* \"#utility.yul\":9626:9757   */\n      tag_217\n      jump\t// in\n    tag_318:\n        /* \"#utility.yul\":9618:9757   */\n      swap1\n      pop\n        /* \"#utility.yul\":9345:9764   */\n      swap2\n      swap1\n      pop\n      jump\t// out\n        /* \"#utility.yul\":9770:9949   */\n    tag_218:\n        /* \"#utility.yul\":9910:9941   */\n      0x746869732066756e642070726f6a656374206973206578706972656421000000\n        /* \"#utility.yul\":9906:9907   */\n      0x00\n        /* \"#utility.yul\":9898:9904   */\n      dup3\n        /* \"#utility.yul\":9894:9908   */\n      add\n        /* \"#utility.yul\":9887:9942   */\n      mstore\n        /* \"#utility.yul\":9770:9949   */\n      pop\n      jump\t// out\n        /* \"#utility.yul\":9955:10321   */\n    tag_219:\n        /* \"#utility.yul\":10097:10100   */\n      0x00\n        /* \"#utility.yul\":10118:10185   */\n      tag_321\n        /* \"#utility.yul\":10182:10184   */\n      0x1d\n        /* \"#utility.yul\":10177:10180   */\n      dup4\n        /* \"#utility.yul\":10118:10185   */\n      tag_204\n      jump\t// in\n    tag_321:\n        /* \"#utility.yul\":10111:10185   */\n      swap2\n      pop\n        /* \"#utility.yul\":10194:10287   */\n      tag_322\n        /* \"#utility.yul\":10283:10286   */\n      dup3\n        /* \"#utility.yul\":10194:10287   */\n      tag_218\n      jump\t// in\n    tag_322:\n        /* \"#utility.yul\":10312:10314   */\n      0x20\n        /* \"#utility.yul\":10307:10310   */\n      dup3\n        /* \"#utility.yul\":10303:10315   */\n      add\n        /* \"#utility.yul\":10296:10315   */\n      swap1\n      pop\n        /* \"#utility.yul\":9955:10321   */\n      swap2\n      swap1\n      pop\n      jump\t// out\n        /* \"#utility.yul\":10327:10746   */\n    tag_131:\n        /* \"#utility.yul\":10493:10497   */\n      0x00\n        /* \"#utility.yul\":10531:10533   */\n      0x20\n        /* \"#utility.yul\":10520:10529   */\n      dup3\n        /* \"#utility.yul\":10516:10534   */\n      add\n        /* \"#utility.yul\":10508:10534   */\n      swap1\n      pop\n        /* \"#utility.yul\":10580:10589   */\n      dup2\n        /* \"#utility.yul\":10574:10578   */\n      dup2\n        /* \"#utility.yul\":10570:10590   */\n      sub\n        /* \"#utility.yul\":10566:10567   */\n      0x00\n        /* \"#utility.yul\":10555:10564   */\n      dup4\n        /* \"#utility.yul\":10551:10568   */\n      add\n        /* \"#utility.yul\":10544:10591   */\n      mstore\n        /* \"#utility.yul\":10608:10739   */\n      tag_324\n        /* \"#utility.yul\":10734:10738   */\n      dup2\n        /* \"#utility.yul\":10608:10739   */\n      tag_219\n      jump\t// in\n    tag_324:\n        /* \"#utility.yul\":10600:10739   */\n      swap1\n      pop\n        /* \"#utility.yul\":10327:10746   */\n      swap2\n      swap1\n      pop\n      jump\t// out\n        /* \"#utility.yul\":10752:10927   */\n    tag_220:\n        /* \"#utility.yul\":10892:10919   */\n      0x796f752068617665206e6f2065746820746f20726566756e6400000000000000\n        /* \"#utility.yul\":10888:10889   */\n      0x00\n        /* \"#utility.yul\":10880:10886   */\n      dup3\n        /* \"#utility.yul\":10876:10890   */\n      add\n        /* \"#utility.yul\":10869:10920   */\n      mstore\n        /* \"#utility.yul\":10752:10927   */\n      pop\n      jump\t// out\n        /* \"#utility.yul\":10933:11299   */\n    tag_221:\n        /* \"#utility.yul\":11075:11078   */\n      0x00\n        /* \"#utility.yul\":11096:11163   */\n      tag_327\n        /* \"#utility.yul\":11160:11162   */\n      0x19\n        /* \"#utility.yul\":11155:11158   */\n      dup4\n        /* \"#utility.yul\":11096:11163   */\n      tag_204\n      jump\t// in\n    tag_327:\n        /* \"#utility.yul\":11089:11163   */\n      swap2\n      pop\n        /* \"#utility.yul\":11172:11265   */\n      tag_328\n        /* \"#utility.yul\":11261:11264   */\n      dup3\n        /* \"#utility.yul\":11172:11265   */\n      tag_220\n      jump\t// in\n    tag_328:\n        /* \"#utility.yul\":11290:11292   */\n      0x20\n        /* \"#utility.yul\":11285:11288   */\n      dup3\n        /* \"#utility.yul\":11281:11293   */\n      add\n        /* \"#utility.yul\":11274:11293   */\n      swap1\n      pop\n        /* \"#utility.yul\":10933:11299   */\n      swap2\n      swap1\n      pop\n      jump\t// out\n        /* \"#utility.yul\":11305:11724   */\n    tag_135:\n        /* \"#utility.yul\":11471:11475   */\n      0x00\n        /* \"#utility.yul\":11509:11511   */\n      0x20\n        /* \"#utility.yul\":11498:11507   */\n      dup3\n        /* \"#utility.yul\":11494:11512   */\n      add\n        /* \"#utility.yul\":11486:11512   */\n      swap1\n      pop\n        /* \"#utility.yul\":11558:11567   */\n      dup2\n        /* \"#utility.yul\":11552:11556   */\n      dup2\n        /* \"#utility.yul\":11548:11568   */\n      sub\n        /* \"#utility.yul\":11544:11545   */\n      0x00\n        /* \"#utility.yul\":11533:11542   */\n      dup4\n        /* \"#utility.yul\":11529:11546   */\n      add\n        /* \"#utility.yul\":11522:11569   */\n      mstore\n        /* \"#utility.yul\":11586:11717   */\n      tag_330\n        /* \"#utility.yul\":11712:11716   */\n      dup2\n        /* \"#utility.yul\":11586:11717   */\n      tag_221\n      jump\t// in\n    tag_330:\n        /* \"#utility.yul\":11578:11717   */\n      swap1\n      pop\n        /* \"#utility.yul\":11305:11724   */\n      swap2\n      swap1\n      pop\n      jump\t// out\n        /* \"#utility.yul\":11730:11910   */\n    tag_222:\n        /* \"#utility.yul\":11778:11855   */\n      0x4e487b7100000000000000000000000000000000000000000000000000000000\n        /* \"#utility.yul\":11775:11776   */\n      0x00\n        /* \"#utility.yul\":11768:11856   */\n      mstore\n        /* \"#utility.yul\":11875:11879   */\n      0x11\n        /* \"#utility.yul\":11872:11873   */\n      0x04\n        /* \"#utility.yul\":11865:11880   */\n      mstore\n        /* \"#utility.yul\":11899:11903   */\n      0x24\n        /* \"#utility.yul\":11896:11897   */\n      0x00\n        /* \"#utility.yul\":11889:11904   */\n      revert\n        /* \"#utility.yul\":11916:12110   */\n    tag_137:\n        /* \"#utility.yul\":11956:11960   */\n      0x00\n        /* \"#utility.yul\":11976:11996   */\n      tag_333\n        /* \"#utility.yul\":11994:11995   */\n      dup3\n        /* \"#utility.yul\":11976:11996   */\n      tag_188\n      jump\t// in\n    tag_333:\n        /* \"#utility.yul\":11971:11996   */\n      swap2\n      pop\n        /* \"#utility.yul\":12010:12030   */\n      tag_334\n        /* \"#utility.yul\":12028:12029   */\n      dup4\n        /* \"#utility.yul\":12010:12030   */\n      tag_188\n      jump\t// in\n    tag_334:\n        /* \"#utility.yul\":12005:12030   */\n      swap3\n      pop\n        /* \"#utility.yul\":12054:12055   */\n      dup3\n        /* \"#utility.yul\":12051:12052   */\n      dup3\n        /* \"#utility.yul\":12047:12056   */\n      sub\n        /* \"#utility.yul\":12039:12056   */\n      swap1\n      pop\n        /* \"#utility.yul\":12078:12079   */\n      dup2\n        /* \"#utility.yul\":12072:12076   */\n      dup2\n        /* \"#utility.yul\":12069:12080   */\n      gt\n        /* \"#utility.yul\":12066:12103   */\n      iszero\n      tag_335\n      jumpi\n        /* \"#utility.yul\":12083:12101   */\n      tag_336\n      tag_222\n      jump\t// in\n    tag_336:\n        /* \"#utility.yul\":12066:12103   */\n    tag_335:\n        /* \"#utility.yul\":11916:12110   */\n      swap3\n      swap2\n      pop\n      pop\n      jump\t// out\n        /* \"#utility.yul\":12116:12279   */\n    tag_223:\n        /* \"#utility.yul\":12256:12271   */\n      0x726566756e64206661696c656400000000000000000000000000000000000000\n        /* \"#utility.yul\":12252:12253   */\n      0x00\n        /* \"#utility.yul\":12244:12250   */\n      dup3\n        /* \"#utility.yul\":12240:12254   */\n      add\n        /* \"#utility.yul\":12233:12272   */\n      mstore\n        /* \"#utility.yul\":12116:12279   */\n      pop\n      jump\t// out\n        /* \"#utility.yul\":12285:12651   */\n    tag_224:\n        /* \"#utility.yul\":12427:12430   */\n      0x00\n        /* \"#utility.yul\":12448:12515   */\n      tag_339\n        /* \"#utility.yul\":12512:12514   */\n      0x0d\n        /* \"#utility.yul\":12507:12510   */\n      dup4\n        /* \"#utility.yul\":12448:12515   */\n      tag_204\n      jump\t// in\n    tag_339:\n        /* \"#utility.yul\":12441:12515   */\n      swap2\n      pop\n        /* \"#utility.yul\":12524:12617   */\n      tag_340\n        /* \"#utility.yul\":12613:12616   */\n      dup3\n        /* \"#utility.yul\":12524:12617   */\n      tag_223\n      jump\t// in\n    tag_340:\n        /* \"#utility.yul\":12642:12644   */\n      0x20\n        /* \"#utility.yul\":12637:12640   */\n      dup3\n        /* \"#utility.yul\":12633:12645   */\n      add\n        /* \"#utility.yul\":12626:12645   */\n      swap1\n      pop\n        /* \"#utility.yul\":12285:12651   */\n      swap2\n      swap1\n      pop\n      jump\t// out\n        /* \"#utility.yul\":12657:13076   */\n    tag_144:\n        /* \"#utility.yul\":12823:12827   */\n      0x00\n        /* \"#utility.yul\":12861:12863   */\n      0x20\n        /* \"#utility.yul\":12850:12859   */\n      dup3\n        /* \"#utility.yul\":12846:12864   */\n      add\n        /* \"#utility.yul\":12838:12864   */\n      swap1\n      pop\n        /* \"#utility.yul\":12910:12919   */\n      dup2\n        /* \"#utility.yul\":12904:12908   */\n      dup2\n        /* \"#utility.yul\":12900:12920   */\n      sub\n        /* \"#utility.yul\":12896:12897   */\n      0x00\n        /* \"#utility.yul\":12885:12894   */\n      dup4\n        /* \"#utility.yul\":12881:12898   */\n      add\n        /* \"#utility.yul\":12874:12921   */\n      mstore\n        /* \"#utility.yul\":12938:13069   */\n      tag_342\n        /* \"#utility.yul\":13064:13068   */\n      dup2\n        /* \"#utility.yul\":12938:13069   */\n      tag_224\n      jump\t// in\n    tag_342:\n        /* \"#utility.yul\":12930:13069   */\n      swap1\n      pop\n        /* \"#utility.yul\":12657:13076   */\n      swap2\n      swap1\n      pop\n      jump\t// out\n        /* \"#utility.yul\":13082:13262   */\n    tag_225:\n        /* \"#utility.yul\":13130:13207   */\n      0x4e487b7100000000000000000000000000000000000000000000000000000000\n        /* \"#utility.yul\":13127:13128   */\n      0x00\n        /* \"#utility.yul\":13120:13208   */\n      mstore\n        /* \"#utility.yul\":13227:13231   */\n      0x12\n        /* \"#utility.yul\":13224:13225   */\n      0x04\n        /* \"#utility.yul\":13217:13232   */\n      mstore\n        /* \"#utility.yul\":13251:13255   */\n      0x24\n        /* \"#utility.yul\":13248:13249   */\n      0x00\n        /* \"#utility.yul\":13241:13256   */\n      revert\n        /* \"#utility.yul\":13268:13453   */\n    tag_148:\n        /* \"#utility.yul\":13308:13309   */\n      0x00\n        /* \"#utility.yul\":13325:13345   */\n      tag_345\n        /* \"#utility.yul\":13343:13344   */\n      dup3\n        /* \"#utility.yul\":13325:13345   */\n      tag_188\n      jump\t// in\n    tag_345:\n        /* \"#utility.yul\":13320:13345   */\n      swap2\n      pop\n        /* \"#utility.yul\":13359:13379   */\n      tag_346\n        /* \"#utility.yul\":13377:13378   */\n      dup4\n        /* \"#utility.yul\":13359:13379   */\n      tag_188\n      jump\t// in\n    tag_346:\n        /* \"#utility.yul\":13354:13379   */\n      swap3\n      pop\n        /* \"#utility.yul\":13398:13399   */\n      dup3\n        /* \"#utility.yul\":13388:13423   */\n      tag_347\n      jumpi\n        /* \"#utility.yul\":13403:13421   */\n      tag_348\n      tag_225\n      jump\t// in\n    tag_348:\n        /* \"#utility.yul\":13388:13423   */\n    tag_347:\n        /* \"#utility.yul\":13445:13446   */\n      dup3\n        /* \"#utility.yul\":13442:13443   */\n      dup3\n        /* \"#utility.yul\":13438:13447   */\n      div\n        /* \"#utility.yul\":13433:13447   */\n      swap1\n      pop\n        /* \"#utility.yul\":13268:13453   */\n      swap3\n      swap2\n      pop\n      pop\n      jump\t// out\n        /* \"#utility.yul\":13459:13641   */\n    tag_226:\n        /* \"#utility.yul\":13599:13633   */\n      0x6f6e6c792065726332302063616e207570646174652074686520616d6f756e74\n        /* \"#utility.yul\":13595:13596   */\n      0x00\n        /* \"#utility.yul\":13587:13593   */\n      dup3\n        /* \"#utility.yul\":13583:13597   */\n      add\n        /* \"#utility.yul\":13576:13634   */\n      mstore\n        /* \"#utility.yul\":13459:13641   */\n      pop\n      jump\t// out\n        /* \"#utility.yul\":13647:14013   */\n    tag_227:\n        /* \"#utility.yul\":13789:13792   */\n      0x00\n        /* \"#utility.yul\":13810:13877   */\n      tag_351\n        /* \"#utility.yul\":13874:13876   */\n      0x20\n        /* \"#utility.yul\":13869:13872   */\n      dup4\n        /* \"#utility.yul\":13810:13877   */\n      tag_204\n      jump\t// in\n    tag_351:\n        /* \"#utility.yul\":13803:13877   */\n      swap2\n      pop\n        /* \"#utility.yul\":13886:13979   */\n      tag_352\n        /* \"#utility.yul\":13975:13978   */\n      dup3\n        /* \"#utility.yul\":13886:13979   */\n      tag_226\n      jump\t// in\n    tag_352:\n        /* \"#utility.yul\":14004:14006   */\n      0x20\n        /* \"#utility.yul\":13999:14002   */\n      dup3\n        /* \"#utility.yul\":13995:14007   */\n      add\n        /* \"#utility.yul\":13988:14007   */\n      swap1\n      pop\n        /* \"#utility.yul\":13647:14013   */\n      swap2\n      swap1\n      pop\n      jump\t// out\n        /* \"#utility.yul\":14019:14438   */\n    tag_159:\n        /* \"#utility.yul\":14185:14189   */\n      0x00\n        /* \"#utility.yul\":14223:14225   */\n      0x20\n        /* \"#utility.yul\":14212:14221   */\n      dup3\n        /* \"#utility.yul\":14208:14226   */\n      add\n        /* \"#utility.yul\":14200:14226   */\n      swap1\n      pop\n        /* \"#utility.yul\":14272:14281   */\n      dup2\n        /* \"#utility.yul\":14266:14270   */\n      dup2\n        /* \"#utility.yul\":14262:14282   */\n      sub\n        /* \"#utility.yul\":14258:14259   */\n      0x00\n        /* \"#utility.yul\":14247:14256   */\n      dup4\n        /* \"#utility.yul\":14243:14260   */\n      add\n        /* \"#utility.yul\":14236:14283   */\n      mstore\n        /* \"#utility.yul\":14300:14431   */\n      tag_354\n        /* \"#utility.yul\":14426:14430   */\n      dup2\n        /* \"#utility.yul\":14300:14431   */\n      tag_227\n      jump\t// in\n    tag_354:\n        /* \"#utility.yul\":14292:14431   */\n      swap1\n      pop\n        /* \"#utility.yul\":14019:14438   */\n      swap2\n      swap1\n      pop\n      jump\t// out\n        /* \"#utility.yul\":14444:14618   */\n    tag_228:\n        /* \"#utility.yul\":14584:14610   */\n      0x706c656173652066756e64206d6f7265204554482f5553440000000000000000\n        /* \"#utility.yul\":14580:14581   */\n      0x00\n        /* \"#utility.yul\":14572:14578   */\n      dup3\n        /* \"#utility.yul\":14568:14582   */\n      add\n        /* \"#utility.yul\":14561:14611   */\n      mstore\n        /* \"#utility.yul\":14444:14618   */\n      pop\n      jump\t// out\n        /* \"#utility.yul\":14624:14990   */\n    tag_229:\n        /* \"#utility.yul\":14766:14769   */\n      0x00\n        /* \"#utility.yul\":14787:14854   */\n      tag_357\n        /* \"#utility.yul\":14851:14853   */\n      0x18\n        /* \"#utility.yul\":14846:14849   */\n      dup4\n        /* \"#utility.yul\":14787:14854   */\n      tag_204\n      jump\t// in\n    tag_357:\n        /* \"#utility.yul\":14780:14854   */\n      swap2\n      pop\n        /* \"#utility.yul\":14863:14956   */\n      tag_358\n        /* \"#utility.yul\":14952:14955   */\n      dup3\n        /* \"#utility.yul\":14863:14956   */\n      tag_228\n      jump\t// in\n    tag_358:\n        /* \"#utility.yul\":14981:14983   */\n      0x20\n        /* \"#utility.yul\":14976:14979   */\n      dup3\n        /* \"#utility.yul\":14972:14984   */\n      add\n        /* \"#utility.yul\":14965:14984   */\n      swap1\n      pop\n        /* \"#utility.yul\":14624:14990   */\n      swap2\n      swap1\n      pop\n      jump\t// out\n        /* \"#utility.yul\":14996:15415   */\n    tag_171:\n        /* \"#utility.yul\":15162:15166   */\n      0x00\n        /* \"#utility.yul\":15200:15202   */\n      0x20\n        /* \"#utility.yul\":15189:15198   */\n      dup3\n        /* \"#utility.yul\":15185:15203   */\n      add\n        /* \"#utility.yul\":15177:15203   */\n      swap1\n      pop\n        /* \"#utility.yul\":15249:15258   */\n      dup2\n        /* \"#utility.yul\":15243:15247   */\n      dup2\n        /* \"#utility.yul\":15239:15259   */\n      sub\n        /* \"#utility.yul\":15235:15236   */\n      0x00\n        /* \"#utility.yul\":15224:15233   */\n      dup4\n        /* \"#utility.yul\":15220:15237   */\n      add\n        /* \"#utility.yul\":15213:15260   */\n      mstore\n        /* \"#utility.yul\":15277:15408   */\n      tag_360\n        /* \"#utility.yul\":15403:15407   */\n      dup2\n        /* \"#utility.yul\":15277:15408   */\n      tag_229\n      jump\t// in\n    tag_360:\n        /* \"#utility.yul\":15269:15408   */\n      swap1\n      pop\n        /* \"#utility.yul\":14996:15415   */\n      swap2\n      swap1\n      pop\n      jump\t// out\n        /* \"#utility.yul\":15421:15612   */\n    tag_173:\n        /* \"#utility.yul\":15461:15464   */\n      0x00\n        /* \"#utility.yul\":15480:15500   */\n      tag_362\n        /* \"#utility.yul\":15498:15499   */\n      dup3\n        /* \"#utility.yul\":15480:15500   */\n      tag_188\n      jump\t// in\n    tag_362:\n        /* \"#utility.yul\":15475:15500   */\n      swap2\n      pop\n        /* \"#utility.yul\":15514:15534   */\n      tag_363\n        /* \"#utility.yul\":15532:15533   */\n      dup4\n        /* \"#utility.yul\":15514:15534   */\n      tag_188\n      jump\t// in\n    tag_363:\n        /* \"#utility.yul\":15509:15534   */\n      swap3\n      pop\n        /* \"#utility.yul\":15557:15558   */\n      dup3\n        /* \"#utility.yul\":15554:15555   */\n      dup3\n        /* \"#utility.yul\":15550:15559   */\n      add\n        /* \"#utility.yul\":15543:15559   */\n      swap1\n      pop\n        /* \"#utility.yul\":15578:15581   */\n      dup1\n        /* \"#utility.yul\":15575:15576   */\n      dup3\n        /* \"#utility.yul\":15572:15582   */\n      gt\n        /* \"#utility.yul\":15569:15605   */\n      iszero\n      tag_364\n      jumpi\n        /* \"#utility.yul\":15585:15603   */\n      tag_365\n      tag_222\n      jump\t// in\n    tag_365:\n        /* \"#utility.yul\":15569:15605   */\n    tag_364:\n        /* \"#utility.yul\":15421:15612   */\n      swap3\n      swap2\n      pop\n      pop\n      jump\t// out\n        /* \"#utility.yul\":15618:15723   */\n    tag_230:\n        /* \"#utility.yul\":15654:15661   */\n      0x00\n        /* \"#utility.yul\":15694:15716   */\n      0xffffffffffffffffffff\n        /* \"#utility.yul\":15687:15692   */\n      dup3\n        /* \"#utility.yul\":15683:15717   */\n      and\n        /* \"#utility.yul\":15672:15717   */\n      swap1\n      pop\n        /* \"#utility.yul\":15618:15723   */\n      swap2\n      swap1\n      pop\n      jump\t// out\n        /* \"#utility.yul\":15729:15849   */\n    tag_231:\n        /* \"#utility.yul\":15801:15824   */\n      tag_368\n        /* \"#utility.yul\":15818:15823   */\n      dup2\n        /* \"#utility.yul\":15801:15824   */\n      tag_230\n      jump\t// in\n    tag_368:\n        /* \"#utility.yul\":15794:15799   */\n      dup2\n        /* \"#utility.yul\":15791:15825   */\n      eq\n        /* \"#utility.yul\":15781:15843   */\n      tag_369\n      jumpi\n        /* \"#utility.yul\":15839:15840   */\n      0x00\n        /* \"#utility.yul\":15836:15837   */\n      0x00\n        /* \"#utility.yul\":15829:15841   */\n      revert\n        /* \"#utility.yul\":15781:15843   */\n    tag_369:\n        /* \"#utility.yul\":15729:15849   */\n      pop\n      jump\t// out\n        /* \"#utility.yul\":15855:15996   */\n    tag_232:\n        /* \"#utility.yul\":15911:15916   */\n      0x00\n        /* \"#utility.yul\":15942:15948   */\n      dup2\n        /* \"#utility.yul\":15936:15949   */\n      mload\n        /* \"#utility.yul\":15927:15949   */\n      swap1\n      pop\n        /* \"#utility.yul\":15958:15990   */\n      tag_371\n        /* \"#utility.yul\":15984:15989   */\n      dup2\n        /* \"#utility.yul\":15958:15990   */\n      tag_231\n      jump\t// in\n    tag_371:\n        /* \"#utility.yul\":15855:15996   */\n      swap3\n      swap2\n      pop\n      pop\n      jump\t// out\n        /* \"#utility.yul\":16002:16122   */\n    tag_233:\n        /* \"#utility.yul\":16074:16097   */\n      tag_373\n        /* \"#utility.yul\":16091:16096   */\n      dup2\n        /* \"#utility.yul\":16074:16097   */\n      tag_202\n      jump\t// in\n    tag_373:\n        /* \"#utility.yul\":16067:16072   */\n      dup2\n        /* \"#utility.yul\":16064:16098   */\n      eq\n        /* \"#utility.yul\":16054:16116   */\n      tag_374\n      jumpi\n        /* \"#utility.yul\":16112:16113   */\n      0x00\n        /* \"#utility.yul\":16109:16110   */\n      0x00\n        /* \"#utility.yul\":16102:16114   */\n      revert\n        /* \"#utility.yul\":16054:16116   */\n    tag_374:\n        /* \"#utility.yul\":16002:16122   */\n      pop\n      jump\t// out\n        /* \"#utility.yul\":16128:16269   */\n    tag_234:\n        /* \"#utility.yul\":16184:16189   */\n      0x00\n        /* \"#utility.yul\":16215:16221   */\n      dup2\n        /* \"#utility.yul\":16209:16222   */\n      mload\n        /* \"#utility.yul\":16200:16222   */\n      swap1\n      pop\n        /* \"#utility.yul\":16231:16263   */\n      tag_376\n        /* \"#utility.yul\":16257:16262   */\n      dup2\n        /* \"#utility.yul\":16231:16263   */\n      tag_233\n      jump\t// in\n    tag_376:\n        /* \"#utility.yul\":16128:16269   */\n      swap3\n      swap2\n      pop\n      pop\n      jump\t// out\n        /* \"#utility.yul\":16275:16418   */\n    tag_235:\n        /* \"#utility.yul\":16332:16337   */\n      0x00\n        /* \"#utility.yul\":16363:16369   */\n      dup2\n        /* \"#utility.yul\":16357:16370   */\n      mload\n        /* \"#utility.yul\":16348:16370   */\n      swap1\n      pop\n        /* \"#utility.yul\":16379:16412   */\n      tag_378\n        /* \"#utility.yul\":16406:16411   */\n      dup2\n        /* \"#utility.yul\":16379:16412   */\n      tag_200\n      jump\t// in\n    tag_378:\n        /* \"#utility.yul\":16275:16418   */\n      swap3\n      swap2\n      pop\n      pop\n      jump\t// out\n        /* \"#utility.yul\":16424:17395   */\n    tag_178:\n        /* \"#utility.yul\":16527:16533   */\n      0x00\n        /* \"#utility.yul\":16535:16541   */\n      0x00\n        /* \"#utility.yul\":16543:16549   */\n      0x00\n        /* \"#utility.yul\":16551:16557   */\n      0x00\n        /* \"#utility.yul\":16559:16565   */\n      0x00\n        /* \"#utility.yul\":16608:16611   */\n      0xa0\n        /* \"#utility.yul\":16596:16605   */\n      dup7\n        /* \"#utility.yul\":16587:16594   */\n      dup9\n        /* \"#utility.yul\":16583:16606   */\n      sub\n        /* \"#utility.yul\":16579:16612   */\n      slt\n        /* \"#utility.yul\":16576:16696   */\n      iszero\n      tag_380\n      jumpi\n        /* \"#utility.yul\":16615:16694   */\n      tag_381\n      tag_196\n      jump\t// in\n    tag_381:\n        /* \"#utility.yul\":16576:16696   */\n    tag_380:\n        /* \"#utility.yul\":16735:16736   */\n      0x00\n        /* \"#utility.yul\":16760:16823   */\n      tag_382\n        /* \"#utility.yul\":16815:16822   */\n      dup9\n        /* \"#utility.yul\":16806:16812   */\n      dup3\n        /* \"#utility.yul\":16795:16804   */\n      dup10\n        /* \"#utility.yul\":16791:16813   */\n      add\n        /* \"#utility.yul\":16760:16823   */\n      tag_232\n      jump\t// in\n    tag_382:\n        /* \"#utility.yul\":16750:16823   */\n      swap6\n      pop\n        /* \"#utility.yul\":16706:16833   */\n      pop\n        /* \"#utility.yul\":16872:16874   */\n      0x20\n        /* \"#utility.yul\":16898:16961   */\n      tag_383\n        /* \"#utility.yul\":16953:16960   */\n      dup9\n        /* \"#utility.yul\":16944:16950   */\n      dup3\n        /* \"#utility.yul\":16933:16942   */\n      dup10\n        /* \"#utility.yul\":16929:16951   */\n      add\n        /* \"#utility.yul\":16898:16961   */\n      tag_234\n      jump\t// in\n    tag_383:\n        /* \"#utility.yul\":16888:16961   */\n      swap5\n      pop\n        /* \"#utility.yul\":16843:16971   */\n      pop\n        /* \"#utility.yul\":17010:17012   */\n      0x40\n        /* \"#utility.yul\":17036:17100   */\n      tag_384\n        /* \"#utility.yul\":17092:17099   */\n      dup9\n        /* \"#utility.yul\":17083:17089   */\n      dup3\n        /* \"#utility.yul\":17072:17081   */\n      dup10\n        /* \"#utility.yul\":17068:17090   */\n      add\n        /* \"#utility.yul\":17036:17100   */\n      tag_235\n      jump\t// in\n    tag_384:\n        /* \"#utility.yul\":17026:17100   */\n      swap4\n      pop\n        /* \"#utility.yul\":16981:17110   */\n      pop\n        /* \"#utility.yul\":17149:17151   */\n      0x60\n        /* \"#utility.yul\":17175:17239   */\n      tag_385\n        /* \"#utility.yul\":17231:17238   */\n      dup9\n        /* \"#utility.yul\":17222:17228   */\n      dup3\n        /* \"#utility.yul\":17211:17220   */\n      dup10\n        /* \"#utility.yul\":17207:17229   */\n      add\n        /* \"#utility.yul\":17175:17239   */\n      tag_235\n      jump\t// in\n    tag_385:\n        /* \"#utility.yul\":17165:17239   */\n      swap3\n      pop\n        /* \"#utility.yul\":17120:17249   */\n      pop\n        /* \"#utility.yul\":17288:17291   */\n      0x80\n        /* \"#utility.yul\":17315:17378   */\n      tag_386\n        /* \"#utility.yul\":17370:17377   */\n      dup9\n        /* \"#utility.yul\":17361:17367   */\n      dup3\n        /* \"#utility.yul\":17350:17359   */\n      dup10\n        /* \"#utility.yul\":17346:17368   */\n      add\n        /* \"#utility.yul\":17315:17378   */\n      tag_232\n      jump\t// in\n    tag_386:\n        /* \"#utility.yul\":17305:17378   */\n      swap2\n      pop\n        /* \"#utility.yul\":17259:17388   */\n      pop\n        /* \"#utility.yul\":16424:17395   */\n      swap3\n      swap6\n      pop\n      swap3\n      swap6\n      swap1\n      swap4\n      pop\n      jump\t// out\n        /* \"#utility.yul\":17401:17811   */\n    tag_186:\n        /* \"#utility.yul\":17441:17448   */\n      0x00\n        /* \"#utility.yul\":17464:17484   */\n      tag_388\n        /* \"#utility.yul\":17482:17483   */\n      dup3\n        /* \"#utility.yul\":17464:17484   */\n      tag_188\n      jump\t// in\n    tag_388:\n        /* \"#utility.yul\":17459:17484   */\n      swap2\n      pop\n        /* \"#utility.yul\":17498:17518   */\n      tag_389\n        /* \"#utility.yul\":17516:17517   */\n      dup4\n        /* \"#utility.yul\":17498:17518   */\n      tag_188\n      jump\t// in\n    tag_389:\n        /* \"#utility.yul\":17493:17518   */\n      swap3\n      pop\n        /* \"#utility.yul\":17553:17554   */\n      dup3\n        /* \"#utility.yul\":17550:17551   */\n      dup3\n        /* \"#utility.yul\":17546:17555   */\n      mul\n        /* \"#utility.yul\":17575:17605   */\n      tag_390\n        /* \"#utility.yul\":17593:17604   */\n      dup2\n        /* \"#utility.yul\":17575:17605   */\n      tag_188\n      jump\t// in\n    tag_390:\n        /* \"#utility.yul\":17564:17605   */\n      swap2\n      pop\n        /* \"#utility.yul\":17754:17755   */\n      dup3\n        /* \"#utility.yul\":17745:17752   */\n      dup3\n        /* \"#utility.yul\":17741:17756   */\n      div\n        /* \"#utility.yul\":17738:17739   */\n      dup5\n        /* \"#utility.yul\":17735:17757   */\n      eq\n        /* \"#utility.yul\":17715:17716   */\n      dup4\n        /* \"#utility.yul\":17708:17717   */\n      iszero\n        /* \"#utility.yul\":17688:17771   */\n      or\n        /* \"#utility.yul\":17665:17804   */\n      tag_391\n      jumpi\n        /* \"#utility.yul\":17784:17802   */\n      tag_392\n      tag_222\n      jump\t// in\n    tag_392:\n        /* \"#utility.yul\":17665:17804   */\n    tag_391:\n        /* \"#utility.yul\":17449:17811   */\n      pop\n        /* \"#utility.yul\":17401:17811   */\n      swap3\n      swap2\n      pop\n      pop\n      jump\t// out\n\n    auxdata: 0xa26469706673582212201197caf5ca9d784fa87adfa590a4cb4385fe56b366929f3610530c0f2e031c1f64736f6c634300081e0033\n}\n",
				"bytecode": {
					"linkReferences": {},
					"object": "608060405264e8d4a510005f556509184e72a0006001555f600860146101000a81548160ff02191690831515021790555034801561003b575f5ffd5b5073694aa1769357215de4fac081bf1f309adc32530660045f6101000a81548173ffffffffffffffffffffffffffffffffffffffff021916908373ffffffffffffffffffffffffffffffffffffffff1602179055503360025f6101000a81548173ffffffffffffffffffffffffffffffffffffffff021916908373ffffffffffffffffffffffffffffffffffffffff1602179055504260058190555061012c6006819055506006546005546100f09190610131565b600781905550610164565b5f819050919050565b7f4e487b71000000000000000000000000000000000000000000000000000000005f52601160045260245ffd5b5f61013b826100fb565b9150610146836100fb565b925082820190508082111561015e5761015d610104565b5b92915050565b6116e8806101715f395ff3fe608060405260043610610113575f3560e01c806387bebdf71161009f578063b60d428811610063578063b60d428814610337578063bea4dfb514610341578063cc1f2afa1461036b578063da284dcc14610395578063ee9b80a4146103bf57610113565b806387bebdf7146102535780638b7afe2e1461028f5780638da5cb5b146102b9578063992c15fc146102e3578063b0800b3f1461030d57610113565b8063590e1ae3116100e6578063590e1ae3146101ab5780635e9c72fc146101c157806362a09477146101eb5780636555697b1461020157806378e979251461022957610113565b8063045544431461011757806318cccf9114610141578063317e3ce0146101575780633f79d96f14610181575b5f5ffd5b348015610122575f5ffd5b5061012b6103e7565b6040516101389190610e4a565b60405180910390f35b34801561014c575f5ffd5b506101556103ed565b005b348015610162575f5ffd5b5061016b6106a7565b6040516101789190610ea2565b60405180910390f35b34801561018c575f5ffd5b506101956106cc565b6040516101a29190610ed5565b60405180910390f35b3480156101b6575f5ffd5b506101bf6106df565b005b3480156101cc575f5ffd5b506101d56108a5565b6040516101e29190610e4a565b60405180910390f35b3480156101f6575f5ffd5b506101ff610900565b005b34801561020c575f5ffd5b5061022760048036038101906102229190610f46565b6109d1565b005b348015610234575f5ffd5b5061023d610b35565b60405161024a9190610e4a565b60405180910390f35b34801561025e575f5ffd5b5061027960048036038101906102749190610f84565b610b3b565b6040516102869190610e4a565b60405180910390f35b34801561029a575f5ffd5b506102a3610b50565b6040516102b09190610e4a565b60405180910390f35b3480156102c4575f5ffd5b506102cd610b57565b6040516102da9190610ea2565b60405180910390f35b3480156102ee575f5ffd5b506102f7610b7c565b6040516103049190610e4a565b60405180910390f35b348015610318575f5ffd5b50610321610b81565b60405161032e9190610e4a565b60405180910390f35b61033f610b9f565b005b34801561034c575f5ffd5b50610355610c84565b6040516103629190610fc7565b60405180910390f35b348015610376575f5ffd5b5061037f610d21565b60405161038c9190610e4a565b60405180910390f35b3480156103a0575f5ffd5b506103a9610d27565b6040516103b69190610e4a565b60405180910390f35b3480156103ca575f5ffd5b506103e560048036038101906103e09190610f84565b610d2d565b005b60065481565b600754421015610432576040517f08c379a000000000000000000000000000000000000000000000000000000000815260040161042990611060565b60405180910390fd5b60025f9054906101000a900473ffffffffffffffffffffffffffffffffffffffff1673ffffffffffffffffffffffffffffffffffffffff163373ffffffffffffffffffffffffffffffffffffffff16146104c1576040517f08c379a00000000000000000000000000000000000000000000000000000000081526004016104b8906110c8565b60405180910390fd5b60015461050a60035f3373ffffffffffffffffffffffffffffffffffffffff1673ffffffffffffffffffffffffffffffffffffffff1681526020019081526020015f2054610dff565b101561054b576040517f08c379a000000000000000000000000000000000000000000000000000000000815260040161054290611156565b60405180910390fd5b60025f9054906101000a900473ffffffffffffffffffffffffffffffffffffffff1673ffffffffffffffffffffffffffffffffffffffff163373ffffffffffffffffffffffffffffffffffffffff16146105da576040517f08c379a00000000000000000000000000000000000000000000000000000000081526004016105d1906111be565b60405180910390fd5b5f3373ffffffffffffffffffffffffffffffffffffffff166105fa610b50565b60405161060690611209565b5f6040518083038185875af1925050503d805f8114610640576040519150601f19603f3d011682016040523d82523d5f602084013e610645565b606091505b5050905080610689576040517f08c379a000000000000000000000000000000000000000000000000000000000815260040161068090611267565b60405180910390fd5b6001600860146101000a81548160ff02191690831515021790555050565b60085f9054906101000a900473ffffffffffffffffffffffffffffffffffffffff1681565b600860149054906101000a900460ff1681565b6007544210610723576040517f08c379a000000000000000000000000000000000000000000000000000000000815260040161071a906112cf565b60405180910390fd5b5f60035f3373ffffffffffffffffffffffffffffffffffffffff1673ffffffffffffffffffffffffffffffffffffffff1681526020019081526020015f205490505f81116107a6576040517f08c379a000000000000000000000000000000000000000000000000000000000815260040161079d90611337565b60405180910390fd5b8060035f3373ffffffffffffffffffffffffffffffffffffffff1673ffffffffffffffffffffffffffffffffffffffff1681526020019081526020015f205f8282546107f29190611382565b925050819055505f3373ffffffffffffffffffffffffffffffffffffffff168260405161081e90611209565b5f6040518083038185875af1925050503d805f8114610858576040519150601f19603f3d011682016040523d82523d5f602084013e61085d565b606091505b50509050806108a1576040517f08c379a0000000000000000000000000000000000000000000000000000000008152600401610898906113ff565b60405180910390fd5b5050565b5f6305f5e1006108f160035f3373ffffffffffffffffffffffffffffffffffffffff1673ffffffffffffffffffffffffffffffffffffffff1681526020019081526020015f2054610dff565b6108fb919061144a565b905090565b60025f9054906101000a900473ffffffffffffffffffffffffffffffffffffffff1673ffffffffffffffffffffffffffffffffffffffff163373ffffffffffffffffffffffffffffffffffffffff161461098f576040517f08c379a0000000000000000000000000000000000000000000000000000000008152600401610986906110c8565b60405180910390fd5b3360025f6101000a81548173ffffffffffffffffffffffffffffffffffffffff021916908373ffffffffffffffffffffffffffffffffffffffff160217905550565b60025f9054906101000a900473ffffffffffffffffffffffffffffffffffffffff1673ffffffffffffffffffffffffffffffffffffffff163373ffffffffffffffffffffffffffffffffffffffff1614610a60576040517f08c379a0000000000000000000000000000000000000000000000000000000008152600401610a57906110c8565b60405180910390fd5b60085f9054906101000a900473ffffffffffffffffffffffffffffffffffffffff1673ffffffffffffffffffffffffffffffffffffffff163373ffffffffffffffffffffffffffffffffffffffff1614610aef576040517f08c379a0000000000000000000000000000000000000000000000000000000008152600401610ae6906114c4565b60405180910390fd5b8060035f8473ffffffffffffffffffffffffffffffffffffffff1673ffffffffffffffffffffffffffffffffffffffff1681526020019081526020015f20819055505050565b60055481565b6003602052805f5260405f205f915090505481565b5f47905090565b60025f9054906101000a900473ffffffffffffffffffffffffffffffffffffffff1681565b5f5481565b5f6305f5e100610b9047610dff565b610b9a919061144a565b905090565b6007544210610be3576040517f08c379a0000000000000000000000000000000000000000000000000000000008152600401610bda906112cf565b60405180910390fd5b5f54610bee34610dff565b1015610c2f576040517f08c379a0000000000000000000000000000000000000000000000000000000008152600401610c269061152c565b60405180910390fd5b3460035f3373ffffffffffffffffffffffffffffffffffffffff1673ffffffffffffffffffffffffffffffffffffffff1681526020019081526020015f205f828254610c7b919061154a565b92505081905550565b5f5f60045f9054906101000a900473ffffffffffffffffffffffffffffffffffffffff1673ffffffffffffffffffffffffffffffffffffffff1663feaf968c6040518163ffffffff1660e01b815260040160a060405180830381865afa158015610cf0573d5f5f3e3d5ffd5b505050506040513d601f19601f82011682018060405250810190610d1491906115fa565b5050509150508091505090565b60015481565b60075481565b60025f9054906101000a900473ffffffffffffffffffffffffffffffffffffffff1673ffffffffffffffffffffffffffffffffffffffff163373ffffffffffffffffffffffffffffffffffffffff1614610dbc576040517f08c379a0000000000000000000000000000000000000000000000000000000008152600401610db3906110c8565b60405180910390fd5b8060085f6101000a81548173ffffffffffffffffffffffffffffffffffffffff021916908373ffffffffffffffffffffffffffffffffffffffff16021790555050565b5f5f610e09610c84565b9050670de0b6b3a76400008184610e209190611671565b610e2a919061144a565b915050919050565b5f819050919050565b610e4481610e32565b82525050565b5f602082019050610e5d5f830184610e3b565b92915050565b5f73ffffffffffffffffffffffffffffffffffffffff82169050919050565b5f610e8c82610e63565b9050919050565b610e9c81610e82565b82525050565b5f602082019050610eb55f830184610e93565b92915050565b5f8115159050919050565b610ecf81610ebb565b82525050565b5f602082019050610ee85f830184610ec6565b92915050565b5f5ffd5b610efb81610e82565b8114610f05575f5ffd5b50565b5f81359050610f1681610ef2565b92915050565b610f2581610e32565b8114610f2f575f5ffd5b50565b5f81359050610f4081610f1c565b92915050565b5f5f60408385031215610f5c57610f5b610eee565b5b5f610f6985828601610f08565b9250506020610f7a85828601610f32565b9150509250929050565b5f60208284031215610f9957610f98610eee565b5b5f610fa684828501610f08565b91505092915050565b5f819050919050565b610fc181610faf565b82525050565b5f602082019050610fda5f830184610fb8565b92915050565b5f82825260208201905092915050565b7f706c65617365207761697420666f72207468652070726f6a65637420657870695f8201527f7265642100000000000000000000000000000000000000000000000000000000602082015250565b5f61104a602483610fe0565b915061105582610ff0565b604082019050919050565b5f6020820190508181035f8301526110778161103e565b9050919050565b7f6f6e6c79206f776e65722063616e206368616e6765206f776e657200000000005f82015250565b5f6110b2601b83610fe0565b91506110bd8261107e565b602082019050919050565b5f6020820190508181035f8301526110df816110a6565b9050919050565b7f796f7520646f6e2774206861766520656e6f7567682045544820746f206472615f8201527f7700000000000000000000000000000000000000000000000000000000000000602082015250565b5f611140602183610fe0565b915061114b826110e6565b604082019050919050565b5f6020820190508181035f83015261116d81611134565b9050919050565b7f6f6e6c79206f776e65722063616e206765742066756e640000000000000000005f82015250565b5f6111a8601783610fe0565b91506111b382611174565b602082019050919050565b5f6020820190508181035f8301526111d58161119c565b9050919050565b5f81905092915050565b50565b5f6111f45f836111dc565b91506111ff826111e6565b5f82019050919050565b5f611213826111e9565b9150819050919050565b7f6661696c656400000000000000000000000000000000000000000000000000005f82015250565b5f611251600683610fe0565b915061125c8261121d565b602082019050919050565b5f6020820190508181035f83015261127e81611245565b9050919050565b7f746869732066756e642070726f6a6563742069732065787069726564210000005f82015250565b5f6112b9601d83610fe0565b91506112c482611285565b602082019050919050565b5f6020820190508181035f8301526112e6816112ad565b9050919050565b7f796f752068617665206e6f2065746820746f20726566756e64000000000000005f82015250565b5f611321601983610fe0565b915061132c826112ed565b602082019050919050565b5f6020820190508181035f83015261134e81611315565b9050919050565b7f4e487b71000000000000000000000000000000000000000000000000000000005f52601160045260245ffd5b5f61138c82610e32565b915061139783610e32565b92508282039050818111156113af576113ae611355565b5b92915050565b7f726566756e64206661696c6564000000000000000000000000000000000000005f82015250565b5f6113e9600d83610fe0565b91506113f4826113b5565b602082019050919050565b5f6020820190508181035f830152611416816113dd565b9050919050565b7f4e487b71000000000000000000000000000000000000000000000000000000005f52601260045260245ffd5b5f61145482610e32565b915061145f83610e32565b92508261146f5761146e61141d565b5b828204905092915050565b7f6f6e6c792065726332302063616e207570646174652074686520616d6f756e745f82015250565b5f6114ae602083610fe0565b91506114b98261147a565b602082019050919050565b5f6020820190508181035f8301526114db816114a2565b9050919050565b7f706c656173652066756e64206d6f7265204554482f55534400000000000000005f82015250565b5f611516601883610fe0565b9150611521826114e2565b602082019050919050565b5f6020820190508181035f8301526115438161150a565b9050919050565b5f61155482610e32565b915061155f83610e32565b925082820190508082111561157757611576611355565b5b92915050565b5f69ffffffffffffffffffff82169050919050565b61159b8161157d565b81146115a5575f5ffd5b50565b5f815190506115b681611592565b92915050565b6115c581610faf565b81146115cf575f5ffd5b50565b5f815190506115e0816115bc565b92915050565b5f815190506115f481610f1c565b92915050565b5f5f5f5f5f60a0868803121561161357611612610eee565b5b5f611620888289016115a8565b9550506020611631888289016115d2565b9450506040611642888289016115e6565b9350506060611653888289016115e6565b9250506080611664888289016115a8565b9150509295509295909350565b5f61167b82610e32565b915061168683610e32565b925082820261169481610e32565b915082820484148315176116ab576116aa611355565b5b509291505056fea26469706673582212201197caf5ca9d784fa87adfa590a4cb4385fe56b366929f3610530c0f2e031c1f64736f6c634300081e0033",
					"opcodes": "PUSH1 0x80 PUSH1 0x40 MSTORE PUSH5 0xE8D4A51000 PUSH0 SSTORE PUSH6 0x9184E72A000 PUSH1 0x1 SSTORE PUSH0 PUSH1 0x8 PUSH1 0x14 PUSH2 0x100 EXP DUP2 SLOAD DUP2 PUSH1 0xFF MUL NOT AND SWAP1 DUP4 ISZERO ISZERO MUL OR SWAP1 SSTORE POP CALLVALUE DUP1 ISZERO PUSH2 0x3B JUMPI PUSH0 PUSH0 REVERT JUMPDEST POP PUSH20 0x694AA1769357215DE4FAC081BF1F309ADC325306 PUSH1 0x4 PUSH0 PUSH2 0x100 EXP DUP2 SLOAD DUP2 PUSH20 0xFFFFFFFFFFFFFFFFFFFFFFFFFFFFFFFFFFFFFFFF MUL NOT AND SWAP1 DUP4 PUSH20 0xFFFFFFFFFFFFFFFFFFFFFFFFFFFFFFFFFFFFFFFF AND MUL OR SWAP1 SSTORE POP CALLER PUSH1 0x2 PUSH0 PUSH2 0x100 EXP DUP2 SLOAD DUP2 PUSH20 0xFFFFFFFFFFFFFFFFFFFFFFFFFFFFFFFFFFFFFFFF MUL NOT AND SWAP1 DUP4 PUSH20 0xFFFFFFFFFFFFFFFFFFFFFFFFFFFFFFFFFFFFFFFF AND MUL OR SWAP1 SSTORE POP TIMESTAMP PUSH1 0x5 DUP2 SWAP1 SSTORE POP PUSH2 0x12C PUSH1 0x6 DUP2 SWAP1 SSTORE POP PUSH1 0x6 SLOAD PUSH1 0x5 SLOAD PUSH2 0xF0 SWAP2 SWAP1 PUSH2 0x131 JUMP JUMPDEST PUSH1 0x7 DUP2 SWAP1 SSTORE POP PUSH2 0x164 JUMP JUMPDEST PUSH0 DUP2 SWAP1 POP SWAP2 SWAP1 POP JUMP JUMPDEST PUSH32 0x4E487B7100000000000000000000000000000000000000000000000000000000 PUSH0 MSTORE PUSH1 0x11 PUSH1 0x4 MSTORE PUSH1 0x24 PUSH0 REVERT JUMPDEST PUSH0 PUSH2 0x13B DUP3 PUSH2 0xFB JUMP JUMPDEST SWAP2 POP PUSH2 0x146 DUP4 PUSH2 0xFB JUMP JUMPDEST SWAP3 POP DUP3 DUP3 ADD SWAP1 POP DUP1 DUP3 GT ISZERO PUSH2 0x15E JUMPI PUSH2 0x15D PUSH2 0x104 JUMP JUMPDEST JUMPDEST SWAP3 SWAP2 POP POP JUMP JUMPDEST PUSH2 0x16E8 DUP1 PUSH2 0x171 PUSH0 CODECOPY PUSH0 RETURN INVALID PUSH1 0x80 PUSH1 0x40 MSTORE PUSH1 0x4 CALLDATASIZE LT PUSH2 0x113 JUMPI PUSH0 CALLDATALOAD PUSH1 0xE0 SHR DUP1 PUSH4 0x87BEBDF7 GT PUSH2 0x9F JUMPI DUP1 PUSH4 0xB60D4288 GT PUSH2 0x63 JUMPI DUP1 PUSH4 0xB60D4288 EQ PUSH2 0x337 JUMPI DUP1 PUSH4 0xBEA4DFB5 EQ PUSH2 0x341 JUMPI DUP1 PUSH4 0xCC1F2AFA EQ PUSH2 0x36B JUMPI DUP1 PUSH4 0xDA284DCC EQ PUSH2 0x395 JUMPI DUP1 PUSH4 0xEE9B80A4 EQ PUSH2 0x3BF JUMPI PUSH2 0x113 JUMP JUMPDEST DUP1 PUSH4 0x87BEBDF7 EQ PUSH2 0x253 JUMPI DUP1 PUSH4 0x8B7AFE2E EQ PUSH2 0x28F JUMPI DUP1 PUSH4 0x8DA5CB5B EQ PUSH2 0x2B9 JUMPI DUP1 PUSH4 0x992C15FC EQ PUSH2 0x2E3 JUMPI DUP1 PUSH4 0xB0800B3F EQ PUSH2 0x30D JUMPI PUSH2 0x113 JUMP JUMPDEST DUP1 PUSH4 0x590E1AE3 GT PUSH2 0xE6 JUMPI DUP1 PUSH4 0x590E1AE3 EQ PUSH2 0x1AB JUMPI DUP1 PUSH4 0x5E9C72FC EQ PUSH2 0x1C1 JUMPI DUP1 PUSH4 0x62A09477 EQ PUSH2 0x1EB JUMPI DUP1 PUSH4 0x6555697B EQ PUSH2 0x201 JUMPI DUP1 PUSH4 0x78E97925 EQ PUSH2 0x229 JUMPI PUSH2 0x113 JUMP JUMPDEST DUP1 PUSH4 0x4554443 EQ PUSH2 0x117 JUMPI DUP1 PUSH4 0x18CCCF91 EQ PUSH2 0x141 JUMPI DUP1 PUSH4 0x317E3CE0 EQ PUSH2 0x157 JUMPI DUP1 PUSH4 0x3F79D96F EQ PUSH2 0x181 JUMPI JUMPDEST PUSH0 PUSH0 REVERT JUMPDEST CALLVALUE DUP1 ISZERO PUSH2 0x122 JUMPI PUSH0 PUSH0 REVERT JUMPDEST POP PUSH2 0x12B PUSH2 0x3E7 JUMP JUMPDEST PUSH1 0x40 MLOAD PUSH2 0x138 SWAP2 SWAP1 PUSH2 0xE4A JUMP JUMPDEST PUSH1 0x40 MLOAD DUP1 SWAP2 SUB SWAP1 RETURN JUMPDEST CALLVALUE DUP1 ISZERO PUSH2 0x14C JUMPI PUSH0 PUSH0 REVERT JUMPDEST POP PUSH2 0x155 PUSH2 0x3ED JUMP JUMPDEST STOP JUMPDEST CALLVALUE DUP1 ISZERO PUSH2 0x162 JUMPI PUSH0 PUSH0 REVERT JUMPDEST POP PUSH2 0x16B PUSH2 0x6A7 JUMP JUMPDEST PUSH1 0x40 MLOAD PUSH2 0x178 SWAP2 SWAP1 PUSH2 0xEA2 JUMP JUMPDEST PUSH1 0x40 MLOAD DUP1 SWAP2 SUB SWAP1 RETURN JUMPDEST CALLVALUE DUP1 ISZERO PUSH2 0x18C JUMPI PUSH0 PUSH0 REVERT JUMPDEST POP PUSH2 0x195 PUSH2 0x6CC JUMP JUMPDEST PUSH1 0x40 MLOAD PUSH2 0x1A2 SWAP2 SWAP1 PUSH2 0xED5 JUMP JUMPDEST PUSH1 0x40 MLOAD DUP1 SWAP2 SUB SWAP1 RETURN JUMPDEST CALLVALUE DUP1 ISZERO PUSH2 0x1B6 JUMPI PUSH0 PUSH0 REVERT JUMPDEST POP PUSH2 0x1BF PUSH2 0x6DF JUMP JUMPDEST STOP JUMPDEST CALLVALUE DUP1 ISZERO PUSH2 0x1CC JUMPI PUSH0 PUSH0 REVERT JUMPDEST POP PUSH2 0x1D5 PUSH2 0x8A5 JUMP JUMPDEST PUSH1 0x40 MLOAD PUSH2 0x1E2 SWAP2 SWAP1 PUSH2 0xE4A JUMP JUMPDEST PUSH1 0x40 MLOAD DUP1 SWAP2 SUB SWAP1 RETURN JUMPDEST CALLVALUE DUP1 ISZERO PUSH2 0x1F6 JUMPI PUSH0 PUSH0 REVERT JUMPDEST POP PUSH2 0x1FF PUSH2 0x900 JUMP JUMPDEST STOP JUMPDEST CALLVALUE DUP1 ISZERO PUSH2 0x20C JUMPI PUSH0 PUSH0 REVERT JUMPDEST POP PUSH2 0x227 PUSH1 0x4 DUP1 CALLDATASIZE SUB DUP2 ADD SWAP1 PUSH2 0x222 SWAP2 SWAP1 PUSH2 0xF46 JUMP JUMPDEST PUSH2 0x9D1 JUMP JUMPDEST STOP JUMPDEST CALLVALUE DUP1 ISZERO PUSH2 0x234 JUMPI PUSH0 PUSH0 REVERT JUMPDEST POP PUSH2 0x23D PUSH2 0xB35 JUMP JUMPDEST PUSH1 0x40 MLOAD PUSH2 0x24A SWAP2 SWAP1 PUSH2 0xE4A JUMP JUMPDEST PUSH1 0x40 MLOAD DUP1 SWAP2 SUB SWAP1 RETURN JUMPDEST CALLVALUE DUP1 ISZERO PUSH2 0x25E JUMPI PUSH0 PUSH0 REVERT JUMPDEST POP PUSH2 0x279 PUSH1 0x4 DUP1 CALLDATASIZE SUB DUP2 ADD SWAP1 PUSH2 0x274 SWAP2 SWAP1 PUSH2 0xF84 JUMP JUMPDEST PUSH2 0xB3B JUMP JUMPDEST PUSH1 0x40 MLOAD PUSH2 0x286 SWAP2 SWAP1 PUSH2 0xE4A JUMP JUMPDEST PUSH1 0x40 MLOAD DUP1 SWAP2 SUB SWAP1 RETURN JUMPDEST CALLVALUE DUP1 ISZERO PUSH2 0x29A JUMPI PUSH0 PUSH0 REVERT JUMPDEST POP PUSH2 0x2A3 PUSH2 0xB50 JUMP JUMPDEST PUSH1 0x40 MLOAD PUSH2 0x2B0 SWAP2 SWAP1 PUSH2 0xE4A JUMP JUMPDEST PUSH1 0x40 MLOAD DUP1 SWAP2 SUB SWAP1 RETURN JUMPDEST CALLVALUE DUP1 ISZERO PUSH2 0x2C4 JUMPI PUSH0 PUSH0 REVERT JUMPDEST POP PUSH2 0x2CD PUSH2 0xB57 JUMP JUMPDEST PUSH1 0x40 MLOAD PUSH2 0x2DA SWAP2 SWAP1 PUSH2 0xEA2 JUMP JUMPDEST PUSH1 0x40 MLOAD DUP1 SWAP2 SUB SWAP1 RETURN JUMPDEST CALLVALUE DUP1 ISZERO PUSH2 0x2EE JUMPI PUSH0 PUSH0 REVERT JUMPDEST POP PUSH2 0x2F7 PUSH2 0xB7C JUMP JUMPDEST PUSH1 0x40 MLOAD PUSH2 0x304 SWAP2 SWAP1 PUSH2 0xE4A JUMP JUMPDEST PUSH1 0x40 MLOAD DUP1 SWAP2 SUB SWAP1 RETURN JUMPDEST CALLVALUE DUP1 ISZERO PUSH2 0x318 JUMPI PUSH0 PUSH0 REVERT JUMPDEST POP PUSH2 0x321 PUSH2 0xB81 JUMP JUMPDEST PUSH1 0x40 MLOAD PUSH2 0x32E SWAP2 SWAP1 PUSH2 0xE4A JUMP JUMPDEST PUSH1 0x40 MLOAD DUP1 SWAP2 SUB SWAP1 RETURN JUMPDEST PUSH2 0x33F PUSH2 0xB9F JUMP JUMPDEST STOP JUMPDEST CALLVALUE DUP1 ISZERO PUSH2 0x34C JUMPI PUSH0 PUSH0 REVERT JUMPDEST POP PUSH2 0x355 PUSH2 0xC84 JUMP JUMPDEST PUSH1 0x40 MLOAD PUSH2 0x362 SWAP2 SWAP1 PUSH2 0xFC7 JUMP JUMPDEST PUSH1 0x40 MLOAD DUP1 SWAP2 SUB SWAP1 RETURN JUMPDEST CALLVALUE DUP1 ISZERO PUSH2 0x376 JUMPI PUSH0 PUSH0 REVERT JUMPDEST POP PUSH2 0x37F PUSH2 0xD21 JUMP JUMPDEST PUSH1 0x40 MLOAD PUSH2 0x38C SWAP2 SWAP1 PUSH2 0xE4A JUMP JUMPDEST PUSH1 0x40 MLOAD DUP1 SWAP2 SUB SWAP1 RETURN JUMPDEST CALLVALUE DUP1 ISZERO PUSH2 0x3A0 JUMPI PUSH0 PUSH0 REVERT JUMPDEST POP PUSH2 0x3A9 PUSH2 0xD27 JUMP JUMPDEST PUSH1 0x40 MLOAD PUSH2 0x3B6 SWAP2 SWAP1 PUSH2 0xE4A JUMP JUMPDEST PUSH1 0x40 MLOAD DUP1 SWAP2 SUB SWAP1 RETURN JUMPDEST CALLVALUE DUP1 ISZERO PUSH2 0x3CA JUMPI PUSH0 PUSH0 REVERT JUMPDEST POP PUSH2 0x3E5 PUSH1 0x4 DUP1 CALLDATASIZE SUB DUP2 ADD SWAP1 PUSH2 0x3E0 SWAP2 SWAP1 PUSH2 0xF84 JUMP JUMPDEST PUSH2 0xD2D JUMP JUMPDEST STOP JUMPDEST PUSH1 0x6 SLOAD DUP2 JUMP JUMPDEST PUSH1 0x7 SLOAD TIMESTAMP LT ISZERO PUSH2 0x432 JUMPI PUSH1 0x40 MLOAD PUSH32 0x8C379A000000000000000000000000000000000000000000000000000000000 DUP2 MSTORE PUSH1 0x4 ADD PUSH2 0x429 SWAP1 PUSH2 0x1060 JUMP JUMPDEST PUSH1 0x40 MLOAD DUP1 SWAP2 SUB SWAP1 REVERT JUMPDEST PUSH1 0x2 PUSH0 SWAP1 SLOAD SWAP1 PUSH2 0x100 EXP SWAP1 DIV PUSH20 0xFFFFFFFFFFFFFFFFFFFFFFFFFFFFFFFFFFFFFFFF AND PUSH20 0xFFFFFFFFFFFFFFFFFFFFFFFFFFFFFFFFFFFFFFFF AND CALLER PUSH20 0xFFFFFFFFFFFFFFFFFFFFFFFFFFFFFFFFFFFFFFFF AND EQ PUSH2 0x4C1 JUMPI PUSH1 0x40 MLOAD PUSH32 0x8C379A000000000000000000000000000000000000000000000000000000000 DUP2 MSTORE PUSH1 0x4 ADD PUSH2 0x4B8 SWAP1 PUSH2 0x10C8 JUMP JUMPDEST PUSH1 0x40 MLOAD DUP1 SWAP2 SUB SWAP1 REVERT JUMPDEST PUSH1 0x1 SLOAD PUSH2 0x50A PUSH1 0x3 PUSH0 CALLER PUSH20 0xFFFFFFFFFFFFFFFFFFFFFFFFFFFFFFFFFFFFFFFF AND PUSH20 0xFFFFFFFFFFFFFFFFFFFFFFFFFFFFFFFFFFFFFFFF AND DUP2 MSTORE PUSH1 0x20 ADD SWAP1 DUP2 MSTORE PUSH1 0x20 ADD PUSH0 KECCAK256 SLOAD PUSH2 0xDFF JUMP JUMPDEST LT ISZERO PUSH2 0x54B JUMPI PUSH1 0x40 MLOAD PUSH32 0x8C379A000000000000000000000000000000000000000000000000000000000 DUP2 MSTORE PUSH1 0x4 ADD PUSH2 0x542 SWAP1 PUSH2 0x1156 JUMP JUMPDEST PUSH1 0x40 MLOAD DUP1 SWAP2 SUB SWAP1 REVERT JUMPDEST PUSH1 0x2 PUSH0 SWAP1 SLOAD SWAP1 PUSH2 0x100 EXP SWAP1 DIV PUSH20 0xFFFFFFFFFFFFFFFFFFFFFFFFFFFFFFFFFFFFFFFF AND PUSH20 0xFFFFFFFFFFFFFFFFFFFFFFFFFFFFFFFFFFFFFFFF AND CALLER PUSH20 0xFFFFFFFFFFFFFFFFFFFFFFFFFFFFFFFFFFFFFFFF AND EQ PUSH2 0x5DA JUMPI PUSH1 0x40 MLOAD PUSH32 0x8C379A000000000000000000000000000000000000000000000000000000000 DUP2 MSTORE PUSH1 0x4 ADD PUSH2 0x5D1 SWAP1 PUSH2 0x11BE JUMP JUMPDEST PUSH1 0x40 MLOAD DUP1 SWAP2 SUB SWAP1 REVERT JUMPDEST PUSH0 CALLER PUSH20 0xFFFFFFFFFFFFFFFFFFFFFFFFFFFFFFFFFFFFFFFF AND PUSH2 0x5FA PUSH2 0xB50 JUMP JUMPDEST PUSH1 0x40 MLOAD PUSH2 0x606 SWAP1 PUSH2 0x1209 JUMP JUMPDEST PUSH0 PUSH1 0x40 MLOAD DUP1 DUP4 SUB DUP2 DUP6 DUP8 GAS CALL SWAP3 POP POP POP RETURNDATASIZE DUP1 PUSH0 DUP2 EQ PUSH2 0x640 JUMPI PUSH1 0x40 MLOAD SWAP2 POP PUSH1 0x1F NOT PUSH1 0x3F RETURNDATASIZE ADD AND DUP3 ADD PUSH1 0x40 MSTORE RETURNDATASIZE DUP3 MSTORE RETURNDATASIZE PUSH0 PUSH1 0x20 DUP5 ADD RETURNDATACOPY PUSH2 0x645 JUMP JUMPDEST PUSH1 0x60 SWAP2 POP JUMPDEST POP POP SWAP1 POP DUP1 PUSH2 0x689 JUMPI PUSH1 0x40 MLOAD PUSH32 0x8C379A000000000000000000000000000000000000000000000000000000000 DUP2 MSTORE PUSH1 0x4 ADD PUSH2 0x680 SWAP1 PUSH2 0x1267 JUMP JUMPDEST PUSH1 0x40 MLOAD DUP1 SWAP2 SUB SWAP1 REVERT JUMPDEST PUSH1 0x1 PUSH1 0x8 PUSH1 0x14 PUSH2 0x100 EXP DUP2 SLOAD DUP2 PUSH1 0xFF MUL NOT AND SWAP1 DUP4 ISZERO ISZERO MUL OR SWAP1 SSTORE POP POP JUMP JUMPDEST PUSH1 0x8 PUSH0 SWAP1 SLOAD SWAP1 PUSH2 0x100 EXP SWAP1 DIV PUSH20 0xFFFFFFFFFFFFFFFFFFFFFFFFFFFFFFFFFFFFFFFF AND DUP2 JUMP JUMPDEST PUSH1 0x8 PUSH1 0x14 SWAP1 SLOAD SWAP1 PUSH2 0x100 EXP SWAP1 DIV PUSH1 0xFF AND DUP2 JUMP JUMPDEST PUSH1 0x7 SLOAD TIMESTAMP LT PUSH2 0x723 JUMPI PUSH1 0x40 MLOAD PUSH32 0x8C379A000000000000000000000000000000000000000000000000000000000 DUP2 MSTORE PUSH1 0x4 ADD PUSH2 0x71A SWAP1 PUSH2 0x12CF JUMP JUMPDEST PUSH1 0x40 MLOAD DUP1 SWAP2 SUB SWAP1 REVERT JUMPDEST PUSH0 PUSH1 0x3 PUSH0 CALLER PUSH20 0xFFFFFFFFFFFFFFFFFFFFFFFFFFFFFFFFFFFFFFFF AND PUSH20 0xFFFFFFFFFFFFFFFFFFFFFFFFFFFFFFFFFFFFFFFF AND DUP2 MSTORE PUSH1 0x20 ADD SWAP1 DUP2 MSTORE PUSH1 0x20 ADD PUSH0 KECCAK256 SLOAD SWAP1 POP PUSH0 DUP2 GT PUSH2 0x7A6 JUMPI PUSH1 0x40 MLOAD PUSH32 0x8C379A000000000000000000000000000000000000000000000000000000000 DUP2 MSTORE PUSH1 0x4 ADD PUSH2 0x79D SWAP1 PUSH2 0x1337 JUMP JUMPDEST PUSH1 0x40 MLOAD DUP1 SWAP2 SUB SWAP1 REVERT JUMPDEST DUP1 PUSH1 0x3 PUSH0 CALLER PUSH20 0xFFFFFFFFFFFFFFFFFFFFFFFFFFFFFFFFFFFFFFFF AND PUSH20 0xFFFFFFFFFFFFFFFFFFFFFFFFFFFFFFFFFFFFFFFF AND DUP2 MSTORE PUSH1 0x20 ADD SWAP1 DUP2 MSTORE PUSH1 0x20 ADD PUSH0 KECCAK256 PUSH0 DUP3 DUP3 SLOAD PUSH2 0x7F2 SWAP2 SWAP1 PUSH2 0x1382 JUMP JUMPDEST SWAP3 POP POP DUP2 SWAP1 SSTORE POP PUSH0 CALLER PUSH20 0xFFFFFFFFFFFFFFFFFFFFFFFFFFFFFFFFFFFFFFFF AND DUP3 PUSH1 0x40 MLOAD PUSH2 0x81E SWAP1 PUSH2 0x1209 JUMP JUMPDEST PUSH0 PUSH1 0x40 MLOAD DUP1 DUP4 SUB DUP2 DUP6 DUP8 GAS CALL SWAP3 POP POP POP RETURNDATASIZE DUP1 PUSH0 DUP2 EQ PUSH2 0x858 JUMPI PUSH1 0x40 MLOAD SWAP2 POP PUSH1 0x1F NOT PUSH1 0x3F RETURNDATASIZE ADD AND DUP3 ADD PUSH1 0x40 MSTORE RETURNDATASIZE DUP3 MSTORE RETURNDATASIZE PUSH0 PUSH1 0x20 DUP5 ADD RETURNDATACOPY PUSH2 0x85D JUMP JUMPDEST PUSH1 0x60 SWAP2 POP JUMPDEST POP POP SWAP1 POP DUP1 PUSH2 0x8A1 JUMPI PUSH1 0x40 MLOAD PUSH32 0x8C379A000000000000000000000000000000000000000000000000000000000 DUP2 MSTORE PUSH1 0x4 ADD PUSH2 0x898 SWAP1 PUSH2 0x13FF JUMP JUMPDEST PUSH1 0x40 MLOAD DUP1 SWAP2 SUB SWAP1 REVERT JUMPDEST POP POP JUMP JUMPDEST PUSH0 PUSH4 0x5F5E100 PUSH2 0x8F1 PUSH1 0x3 PUSH0 CALLER PUSH20 0xFFFFFFFFFFFFFFFFFFFFFFFFFFFFFFFFFFFFFFFF AND PUSH20 0xFFFFFFFFFFFFFFFFFFFFFFFFFFFFFFFFFFFFFFFF AND DUP2 MSTORE PUSH1 0x20 ADD SWAP1 DUP2 MSTORE PUSH1 0x20 ADD PUSH0 KECCAK256 SLOAD PUSH2 0xDFF JUMP JUMPDEST PUSH2 0x8FB SWAP2 SWAP1 PUSH2 0x144A JUMP JUMPDEST SWAP1 POP SWAP1 JUMP JUMPDEST PUSH1 0x2 PUSH0 SWAP1 SLOAD SWAP1 PUSH2 0x100 EXP SWAP1 DIV PUSH20 0xFFFFFFFFFFFFFFFFFFFFFFFFFFFFFFFFFFFFFFFF AND PUSH20 0xFFFFFFFFFFFFFFFFFFFFFFFFFFFFFFFFFFFFFFFF AND CALLER PUSH20 0xFFFFFFFFFFFFFFFFFFFFFFFFFFFFFFFFFFFFFFFF AND EQ PUSH2 0x98F JUMPI PUSH1 0x40 MLOAD PUSH32 0x8C379A000000000000000000000000000000000000000000000000000000000 DUP2 MSTORE PUSH1 0x4 ADD PUSH2 0x986 SWAP1 PUSH2 0x10C8 JUMP JUMPDEST PUSH1 0x40 MLOAD DUP1 SWAP2 SUB SWAP1 REVERT JUMPDEST CALLER PUSH1 0x2 PUSH0 PUSH2 0x100 EXP DUP2 SLOAD DUP2 PUSH20 0xFFFFFFFFFFFFFFFFFFFFFFFFFFFFFFFFFFFFFFFF MUL NOT AND SWAP1 DUP4 PUSH20 0xFFFFFFFFFFFFFFFFFFFFFFFFFFFFFFFFFFFFFFFF AND MUL OR SWAP1 SSTORE POP JUMP JUMPDEST PUSH1 0x2 PUSH0 SWAP1 SLOAD SWAP1 PUSH2 0x100 EXP SWAP1 DIV PUSH20 0xFFFFFFFFFFFFFFFFFFFFFFFFFFFFFFFFFFFFFFFF AND PUSH20 0xFFFFFFFFFFFFFFFFFFFFFFFFFFFFFFFFFFFFFFFF AND CALLER PUSH20 0xFFFFFFFFFFFFFFFFFFFFFFFFFFFFFFFFFFFFFFFF AND EQ PUSH2 0xA60 JUMPI PUSH1 0x40 MLOAD PUSH32 0x8C379A000000000000000000000000000000000000000000000000000000000 DUP2 MSTORE PUSH1 0x4 ADD PUSH2 0xA57 SWAP1 PUSH2 0x10C8 JUMP JUMPDEST PUSH1 0x40 MLOAD DUP1 SWAP2 SUB SWAP1 REVERT JUMPDEST PUSH1 0x8 PUSH0 SWAP1 SLOAD SWAP1 PUSH2 0x100 EXP SWAP1 DIV PUSH20 0xFFFFFFFFFFFFFFFFFFFFFFFFFFFFFFFFFFFFFFFF AND PUSH20 0xFFFFFFFFFFFFFFFFFFFFFFFFFFFFFFFFFFFFFFFF AND CALLER PUSH20 0xFFFFFFFFFFFFFFFFFFFFFFFFFFFFFFFFFFFFFFFF AND EQ PUSH2 0xAEF JUMPI PUSH1 0x40 MLOAD PUSH32 0x8C379A000000000000000000000000000000000000000000000000000000000 DUP2 MSTORE PUSH1 0x4 ADD PUSH2 0xAE6 SWAP1 PUSH2 0x14C4 JUMP JUMPDEST PUSH1 0x40 MLOAD DUP1 SWAP2 SUB SWAP1 REVERT JUMPDEST DUP1 PUSH1 0x3 PUSH0 DUP5 PUSH20 0xFFFFFFFFFFFFFFFFFFFFFFFFFFFFFFFFFFFFFFFF AND PUSH20 0xFFFFFFFFFFFFFFFFFFFFFFFFFFFFFFFFFFFFFFFF AND DUP2 MSTORE PUSH1 0x20 ADD SWAP1 DUP2 MSTORE PUSH1 0x20 ADD PUSH0 KECCAK256 DUP2 SWAP1 SSTORE POP POP POP JUMP JUMPDEST PUSH1 0x5 SLOAD DUP2 JUMP JUMPDEST PUSH1 0x3 PUSH1 0x20 MSTORE DUP1 PUSH0 MSTORE PUSH1 0x40 PUSH0 KECCAK256 PUSH0 SWAP2 POP SWAP1 POP SLOAD DUP2 JUMP JUMPDEST PUSH0 SELFBALANCE SWAP1 POP SWAP1 JUMP JUMPDEST PUSH1 0x2 PUSH0 SWAP1 SLOAD SWAP1 PUSH2 0x100 EXP SWAP1 DIV PUSH20 0xFFFFFFFFFFFFFFFFFFFFFFFFFFFFFFFFFFFFFFFF AND DUP2 JUMP JUMPDEST PUSH0 SLOAD DUP2 JUMP JUMPDEST PUSH0 PUSH4 0x5F5E100 PUSH2 0xB90 SELFBALANCE PUSH2 0xDFF JUMP JUMPDEST PUSH2 0xB9A SWAP2 SWAP1 PUSH2 0x144A JUMP JUMPDEST SWAP1 POP SWAP1 JUMP JUMPDEST PUSH1 0x7 SLOAD TIMESTAMP LT PUSH2 0xBE3 JUMPI PUSH1 0x40 MLOAD PUSH32 0x8C379A000000000000000000000000000000000000000000000000000000000 DUP2 MSTORE PUSH1 0x4 ADD PUSH2 0xBDA SWAP1 PUSH2 0x12CF JUMP JUMPDEST PUSH1 0x40 MLOAD DUP1 SWAP2 SUB SWAP1 REVERT JUMPDEST PUSH0 SLOAD PUSH2 0xBEE CALLVALUE PUSH2 0xDFF JUMP JUMPDEST LT ISZERO PUSH2 0xC2F JUMPI PUSH1 0x40 MLOAD PUSH32 0x8C379A000000000000000000000000000000000000000000000000000000000 DUP2 MSTORE PUSH1 0x4 ADD PUSH2 0xC26 SWAP1 PUSH2 0x152C JUMP JUMPDEST PUSH1 0x40 MLOAD DUP1 SWAP2 SUB SWAP1 REVERT JUMPDEST CALLVALUE PUSH1 0x3 PUSH0 CALLER PUSH20 0xFFFFFFFFFFFFFFFFFFFFFFFFFFFFFFFFFFFFFFFF AND PUSH20 0xFFFFFFFFFFFFFFFFFFFFFFFFFFFFFFFFFFFFFFFF AND DUP2 MSTORE PUSH1 0x20 ADD SWAP1 DUP2 MSTORE PUSH1 0x20 ADD PUSH0 KECCAK256 PUSH0 DUP3 DUP3 SLOAD PUSH2 0xC7B SWAP2 SWAP1 PUSH2 0x154A JUMP JUMPDEST SWAP3 POP POP DUP2 SWAP1 SSTORE POP JUMP JUMPDEST PUSH0 PUSH0 PUSH1 0x4 PUSH0 SWAP1 SLOAD SWAP1 PUSH2 0x100 EXP SWAP1 DIV PUSH20 0xFFFFFFFFFFFFFFFFFFFFFFFFFFFFFFFFFFFFFFFF AND PUSH20 0xFFFFFFFFFFFFFFFFFFFFFFFFFFFFFFFFFFFFFFFF AND PUSH4 0xFEAF968C PUSH1 0x40 MLOAD DUP2 PUSH4 0xFFFFFFFF AND PUSH1 0xE0 SHL DUP2 MSTORE PUSH1 0x4 ADD PUSH1 0xA0 PUSH1 0x40 MLOAD DUP1 DUP4 SUB DUP2 DUP7 GAS STATICCALL ISZERO DUP1 ISZERO PUSH2 0xCF0 JUMPI RETURNDATASIZE PUSH0 PUSH0 RETURNDATACOPY RETURNDATASIZE PUSH0 REVERT JUMPDEST POP POP POP POP PUSH1 0x40 MLOAD RETURNDATASIZE PUSH1 0x1F NOT PUSH1 0x1F DUP3 ADD AND DUP3 ADD DUP1 PUSH1 0x40 MSTORE POP DUP2 ADD SWAP1 PUSH2 0xD14 SWAP2 SWAP1 PUSH2 0x15FA JUMP JUMPDEST POP POP POP SWAP2 POP POP DUP1 SWAP2 POP POP SWAP1 JUMP JUMPDEST PUSH1 0x1 SLOAD DUP2 JUMP JUMPDEST PUSH1 0x7 SLOAD DUP2 JUMP JUMPDEST PUSH1 0x2 PUSH0 SWAP1 SLOAD SWAP1 PUSH2 0x100 EXP SWAP1 DIV PUSH20 0xFFFFFFFFFFFFFFFFFFFFFFFFFFFFFFFFFFFFFFFF AND PUSH20 0xFFFFFFFFFFFFFFFFFFFFFFFFFFFFFFFFFFFFFFFF AND CALLER PUSH20 0xFFFFFFFFFFFFFFFFFFFFFFFFFFFFFFFFFFFFFFFF AND EQ PUSH2 0xDBC JUMPI PUSH1 0x40 MLOAD PUSH32 0x8C379A000000000000000000000000000000000000000000000000000000000 DUP2 MSTORE PUSH1 0x4 ADD PUSH2 0xDB3 SWAP1 PUSH2 0x10C8 JUMP JUMPDEST PUSH1 0x40 MLOAD DUP1 SWAP2 SUB SWAP1 REVERT JUMPDEST DUP1 PUSH1 0x8 PUSH0 PUSH2 0x100 EXP DUP2 SLOAD DUP2 PUSH20 0xFFFFFFFFFFFFFFFFFFFFFFFFFFFFFFFFFFFFFFFF MUL NOT AND SWAP1 DUP4 PUSH20 0xFFFFFFFFFFFFFFFFFFFFFFFFFFFFFFFFFFFFFFFF AND MUL OR SWAP1 SSTORE POP POP JUMP JUMPDEST PUSH0 PUSH0 PUSH2 0xE09 PUSH2 0xC84 JUMP JUMPDEST SWAP1 POP PUSH8 0xDE0B6B3A7640000 DUP2 DUP5 PUSH2 0xE20 SWAP2 SWAP1 PUSH2 0x1671 JUMP JUMPDEST PUSH2 0xE2A SWAP2 SWAP1 PUSH2 0x144A JUMP JUMPDEST SWAP2 POP POP SWAP2 SWAP1 POP JUMP JUMPDEST PUSH0 DUP2 SWAP1 POP SWAP2 SWAP1 POP JUMP JUMPDEST PUSH2 0xE44 DUP2 PUSH2 0xE32 JUMP JUMPDEST DUP3 MSTORE POP POP JUMP JUMPDEST PUSH0 PUSH1 0x20 DUP3 ADD SWAP1 POP PUSH2 0xE5D PUSH0 DUP4 ADD DUP5 PUSH2 0xE3B JUMP JUMPDEST SWAP3 SWAP2 POP POP JUMP JUMPDEST PUSH0 PUSH20 0xFFFFFFFFFFFFFFFFFFFFFFFFFFFFFFFFFFFFFFFF DUP3 AND SWAP1 POP SWAP2 SWAP1 POP JUMP JUMPDEST PUSH0 PUSH2 0xE8C DUP3 PUSH2 0xE63 JUMP JUMPDEST SWAP1 POP SWAP2 SWAP1 POP JUMP JUMPDEST PUSH2 0xE9C DUP2 PUSH2 0xE82 JUMP JUMPDEST DUP3 MSTORE POP POP JUMP JUMPDEST PUSH0 PUSH1 0x20 DUP3 ADD SWAP1 POP PUSH2 0xEB5 PUSH0 DUP4 ADD DUP5 PUSH2 0xE93 JUMP JUMPDEST SWAP3 SWAP2 POP POP JUMP JUMPDEST PUSH0 DUP2 ISZERO ISZERO SWAP1 POP SWAP2 SWAP1 POP JUMP JUMPDEST PUSH2 0xECF DUP2 PUSH2 0xEBB JUMP JUMPDEST DUP3 MSTORE POP POP JUMP JUMPDEST PUSH0 PUSH1 0x20 DUP3 ADD SWAP1 POP PUSH2 0xEE8 PUSH0 DUP4 ADD DUP5 PUSH2 0xEC6 JUMP JUMPDEST SWAP3 SWAP2 POP POP JUMP JUMPDEST PUSH0 PUSH0 REVERT JUMPDEST PUSH2 0xEFB DUP2 PUSH2 0xE82 JUMP JUMPDEST DUP2 EQ PUSH2 0xF05 JUMPI PUSH0 PUSH0 REVERT JUMPDEST POP JUMP JUMPDEST PUSH0 DUP2 CALLDATALOAD SWAP1 POP PUSH2 0xF16 DUP2 PUSH2 0xEF2 JUMP JUMPDEST SWAP3 SWAP2 POP POP JUMP JUMPDEST PUSH2 0xF25 DUP2 PUSH2 0xE32 JUMP JUMPDEST DUP2 EQ PUSH2 0xF2F JUMPI PUSH0 PUSH0 REVERT JUMPDEST POP JUMP JUMPDEST PUSH0 DUP2 CALLDATALOAD SWAP1 POP PUSH2 0xF40 DUP2 PUSH2 0xF1C JUMP JUMPDEST SWAP3 SWAP2 POP POP JUMP JUMPDEST PUSH0 PUSH0 PUSH1 0x40 DUP4 DUP6 SUB SLT ISZERO PUSH2 0xF5C JUMPI PUSH2 0xF5B PUSH2 0xEEE JUMP JUMPDEST JUMPDEST PUSH0 PUSH2 0xF69 DUP6 DUP3 DUP7 ADD PUSH2 0xF08 JUMP JUMPDEST SWAP3 POP POP PUSH1 0x20 PUSH2 0xF7A DUP6 DUP3 DUP7 ADD PUSH2 0xF32 JUMP JUMPDEST SWAP2 POP POP SWAP3 POP SWAP3 SWAP1 POP JUMP JUMPDEST PUSH0 PUSH1 0x20 DUP3 DUP5 SUB SLT ISZERO PUSH2 0xF99 JUMPI PUSH2 0xF98 PUSH2 0xEEE JUMP JUMPDEST JUMPDEST PUSH0 PUSH2 0xFA6 DUP5 DUP3 DUP6 ADD PUSH2 0xF08 JUMP JUMPDEST SWAP2 POP POP SWAP3 SWAP2 POP POP JUMP JUMPDEST PUSH0 DUP2 SWAP1 POP SWAP2 SWAP1 POP JUMP JUMPDEST PUSH2 0xFC1 DUP2 PUSH2 0xFAF JUMP JUMPDEST DUP3 MSTORE POP POP JUMP JUMPDEST PUSH0 PUSH1 0x20 DUP3 ADD SWAP1 POP PUSH2 0xFDA PUSH0 DUP4 ADD DUP5 PUSH2 0xFB8 JUMP JUMPDEST SWAP3 SWAP2 POP POP JUMP JUMPDEST PUSH0 DUP3 DUP3 MSTORE PUSH1 0x20 DUP3 ADD SWAP1 POP SWAP3 SWAP2 POP POP JUMP JUMPDEST PUSH32 0x706C65617365207761697420666F72207468652070726F6A6563742065787069 PUSH0 DUP3 ADD MSTORE PUSH32 0x7265642100000000000000000000000000000000000000000000000000000000 PUSH1 0x20 DUP3 ADD MSTORE POP JUMP JUMPDEST PUSH0 PUSH2 0x104A PUSH1 0x24 DUP4 PUSH2 0xFE0 JUMP JUMPDEST SWAP2 POP PUSH2 0x1055 DUP3 PUSH2 0xFF0 JUMP JUMPDEST PUSH1 0x40 DUP3 ADD SWAP1 POP SWAP2 SWAP1 POP JUMP JUMPDEST PUSH0 PUSH1 0x20 DUP3 ADD SWAP1 POP DUP2 DUP2 SUB PUSH0 DUP4 ADD MSTORE PUSH2 0x1077 DUP2 PUSH2 0x103E JUMP JUMPDEST SWAP1 POP SWAP2 SWAP1 POP JUMP JUMPDEST PUSH32 0x6F6E6C79206F776E65722063616E206368616E6765206F776E65720000000000 PUSH0 DUP3 ADD MSTORE POP JUMP JUMPDEST PUSH0 PUSH2 0x10B2 PUSH1 0x1B DUP4 PUSH2 0xFE0 JUMP JUMPDEST SWAP2 POP PUSH2 0x10BD DUP3 PUSH2 0x107E JUMP JUMPDEST PUSH1 0x20 DUP3 ADD SWAP1 POP SWAP2 SWAP1 POP JUMP JUMPDEST PUSH0 PUSH1 0x20 DUP3 ADD SWAP1 POP DUP2 DUP2 SUB PUSH0 DUP4 ADD MSTORE PUSH2 0x10DF DUP2 PUSH2 0x10A6 JUMP JUMPDEST SWAP1 POP SWAP2 SWAP1 POP JUMP JUMPDEST PUSH32 0x796F7520646F6E2774206861766520656E6F7567682045544820746F20647261 PUSH0 DUP3 ADD MSTORE PUSH32 0x7700000000000000000000000000000000000000000000000000000000000000 PUSH1 0x20 DUP3 ADD MSTORE POP JUMP JUMPDEST PUSH0 PUSH2 0x1140 PUSH1 0x21 DUP4 PUSH2 0xFE0 JUMP JUMPDEST SWAP2 POP PUSH2 0x114B DUP3 PUSH2 0x10E6 JUMP JUMPDEST PUSH1 0x40 DUP3 ADD SWAP1 POP SWAP2 SWAP1 POP JUMP JUMPDEST PUSH0 PUSH1 0x20 DUP3 ADD SWAP1 POP DUP2 DUP2 SUB PUSH0 DUP4 ADD MSTORE PUSH2 0x116D DUP2 PUSH2 0x1134 JUMP JUMPDEST SWAP1 POP SWAP2 SWAP1 POP JUMP JUMPDEST PUSH32 0x6F6E6C79206F776E65722063616E206765742066756E64000000000000000000 PUSH0 DUP3 ADD MSTORE POP JUMP JUMPDEST PUSH0 PUSH2 0x11A8 PUSH1 0x17 DUP4 PUSH2 0xFE0 JUMP JUMPDEST SWAP2 POP PUSH2 0x11B3 DUP3 PUSH2 0x1174 JUMP JUMPDEST PUSH1 0x20 DUP3 ADD SWAP1 POP SWAP2 SWAP1 POP JUMP JUMPDEST PUSH0 PUSH1 0x20 DUP3 ADD SWAP1 POP DUP2 DUP2 SUB PUSH0 DUP4 ADD MSTORE PUSH2 0x11D5 DUP2 PUSH2 0x119C JUMP JUMPDEST SWAP1 POP SWAP2 SWAP1 POP JUMP JUMPDEST PUSH0 DUP2 SWAP1 POP SWAP3 SWAP2 POP POP JUMP JUMPDEST POP JUMP JUMPDEST PUSH0 PUSH2 0x11F4 PUSH0 DUP4 PUSH2 0x11DC JUMP JUMPDEST SWAP2 POP PUSH2 0x11FF DUP3 PUSH2 0x11E6 JUMP JUMPDEST PUSH0 DUP3 ADD SWAP1 POP SWAP2 SWAP1 POP JUMP JUMPDEST PUSH0 PUSH2 0x1213 DUP3 PUSH2 0x11E9 JUMP JUMPDEST SWAP2 POP DUP2 SWAP1 POP SWAP2 SWAP1 POP JUMP JUMPDEST PUSH32 0x6661696C65640000000000000000000000000000000000000000000000000000 PUSH0 DUP3 ADD MSTORE POP JUMP JUMPDEST PUSH0 PUSH2 0x1251 PUSH1 0x6 DUP4 PUSH2 0xFE0 JUMP JUMPDEST SWAP2 POP PUSH2 0x125C DUP3 PUSH2 0x121D JUMP JUMPDEST PUSH1 0x20 DUP3 ADD SWAP1 POP SWAP2 SWAP1 POP JUMP JUMPDEST PUSH0 PUSH1 0x20 DUP3 ADD SWAP1 POP DUP2 DUP2 SUB PUSH0 DUP4 ADD MSTORE PUSH2 0x127E DUP2 PUSH2 0x1245 JUMP JUMPDEST SWAP1 POP SWAP2 SWAP1 POP JUMP JUMPDEST PUSH32 0x746869732066756E642070726F6A656374206973206578706972656421000000 PUSH0 DUP3 ADD MSTORE POP JUMP JUMPDEST PUSH0 PUSH2 0x12B9 PUSH1 0x1D DUP4 PUSH2 0xFE0 JUMP JUMPDEST SWAP2 POP PUSH2 0x12C4 DUP3 PUSH2 0x1285 JUMP JUMPDEST PUSH1 0x20 DUP3 ADD SWAP1 POP SWAP2 SWAP1 POP JUMP JUMPDEST PUSH0 PUSH1 0x20 DUP3 ADD SWAP1 POP DUP2 DUP2 SUB PUSH0 DUP4 ADD MSTORE PUSH2 0x12E6 DUP2 PUSH2 0x12AD JUMP JUMPDEST SWAP1 POP SWAP2 SWAP1 POP JUMP JUMPDEST PUSH32 0x796F752068617665206E6F2065746820746F20726566756E6400000000000000 PUSH0 DUP3 ADD MSTORE POP JUMP JUMPDEST PUSH0 PUSH2 0x1321 PUSH1 0x19 DUP4 PUSH2 0xFE0 JUMP JUMPDEST SWAP2 POP PUSH2 0x132C DUP3 PUSH2 0x12ED JUMP JUMPDEST PUSH1 0x20 DUP3 ADD SWAP1 POP SWAP2 SWAP1 POP JUMP JUMPDEST PUSH0 PUSH1 0x20 DUP3 ADD SWAP1 POP DUP2 DUP2 SUB PUSH0 DUP4 ADD MSTORE PUSH2 0x134E DUP2 PUSH2 0x1315 JUMP JUMPDEST SWAP1 POP SWAP2 SWAP1 POP JUMP JUMPDEST PUSH32 0x4E487B7100000000000000000000000000000000000000000000000000000000 PUSH0 MSTORE PUSH1 0x11 PUSH1 0x4 MSTORE PUSH1 0x24 PUSH0 REVERT JUMPDEST PUSH0 PUSH2 0x138C DUP3 PUSH2 0xE32 JUMP JUMPDEST SWAP2 POP PUSH2 0x1397 DUP4 PUSH2 0xE32 JUMP JUMPDEST SWAP3 POP DUP3 DUP3 SUB SWAP1 POP DUP2 DUP2 GT ISZERO PUSH2 0x13AF JUMPI PUSH2 0x13AE PUSH2 0x1355 JUMP JUMPDEST JUMPDEST SWAP3 SWAP2 POP POP JUMP JUMPDEST PUSH32 0x726566756E64206661696C656400000000000000000000000000000000000000 PUSH0 DUP3 ADD MSTORE POP JUMP JUMPDEST PUSH0 PUSH2 0x13E9 PUSH1 0xD DUP4 PUSH2 0xFE0 JUMP JUMPDEST SWAP2 POP PUSH2 0x13F4 DUP3 PUSH2 0x13B5 JUMP JUMPDEST PUSH1 0x20 DUP3 ADD SWAP1 POP SWAP2 SWAP1 POP JUMP JUMPDEST PUSH0 PUSH1 0x20 DUP3 ADD SWAP1 POP DUP2 DUP2 SUB PUSH0 DUP4 ADD MSTORE PUSH2 0x1416 DUP2 PUSH2 0x13DD JUMP JUMPDEST SWAP1 POP SWAP2 SWAP1 POP JUMP JUMPDEST PUSH32 0x4E487B7100000000000000000000000000000000000000000000000000000000 PUSH0 MSTORE PUSH1 0x12 PUSH1 0x4 MSTORE PUSH1 0x24 PUSH0 REVERT JUMPDEST PUSH0 PUSH2 0x1454 DUP3 PUSH2 0xE32 JUMP JUMPDEST SWAP2 POP PUSH2 0x145F DUP4 PUSH2 0xE32 JUMP JUMPDEST SWAP3 POP DUP3 PUSH2 0x146F JUMPI PUSH2 0x146E PUSH2 0x141D JUMP JUMPDEST JUMPDEST DUP3 DUP3 DIV SWAP1 POP SWAP3 SWAP2 POP POP JUMP JUMPDEST PUSH32 0x6F6E6C792065726332302063616E207570646174652074686520616D6F756E74 PUSH0 DUP3 ADD MSTORE POP JUMP JUMPDEST PUSH0 PUSH2 0x14AE PUSH1 0x20 DUP4 PUSH2 0xFE0 JUMP JUMPDEST SWAP2 POP PUSH2 0x14B9 DUP3 PUSH2 0x147A JUMP JUMPDEST PUSH1 0x20 DUP3 ADD SWAP1 POP SWAP2 SWAP1 POP JUMP JUMPDEST PUSH0 PUSH1 0x20 DUP3 ADD SWAP1 POP DUP2 DUP2 SUB PUSH0 DUP4 ADD MSTORE PUSH2 0x14DB DUP2 PUSH2 0x14A2 JUMP JUMPDEST SWAP1 POP SWAP2 SWAP1 POP JUMP JUMPDEST PUSH32 0x706C656173652066756E64206D6F7265204554482F5553440000000000000000 PUSH0 DUP3 ADD MSTORE POP JUMP JUMPDEST PUSH0 PUSH2 0x1516 PUSH1 0x18 DUP4 PUSH2 0xFE0 JUMP JUMPDEST SWAP2 POP PUSH2 0x1521 DUP3 PUSH2 0x14E2 JUMP JUMPDEST PUSH1 0x20 DUP3 ADD SWAP1 POP SWAP2 SWAP1 POP JUMP JUMPDEST PUSH0 PUSH1 0x20 DUP3 ADD SWAP1 POP DUP2 DUP2 SUB PUSH0 DUP4 ADD MSTORE PUSH2 0x1543 DUP2 PUSH2 0x150A JUMP JUMPDEST SWAP1 POP SWAP2 SWAP1 POP JUMP JUMPDEST PUSH0 PUSH2 0x1554 DUP3 PUSH2 0xE32 JUMP JUMPDEST SWAP2 POP PUSH2 0x155F DUP4 PUSH2 0xE32 JUMP JUMPDEST SWAP3 POP DUP3 DUP3 ADD SWAP1 POP DUP1 DUP3 GT ISZERO PUSH2 0x1577 JUMPI PUSH2 0x1576 PUSH2 0x1355 JUMP JUMPDEST JUMPDEST SWAP3 SWAP2 POP POP JUMP JUMPDEST PUSH0 PUSH10 0xFFFFFFFFFFFFFFFFFFFF DUP3 AND SWAP1 POP SWAP2 SWAP1 POP JUMP JUMPDEST PUSH2 0x159B DUP2 PUSH2 0x157D JUMP JUMPDEST DUP2 EQ PUSH2 0x15A5 JUMPI PUSH0 PUSH0 REVERT JUMPDEST POP JUMP JUMPDEST PUSH0 DUP2 MLOAD SWAP1 POP PUSH2 0x15B6 DUP2 PUSH2 0x1592 JUMP JUMPDEST SWAP3 SWAP2 POP POP JUMP JUMPDEST PUSH2 0x15C5 DUP2 PUSH2 0xFAF JUMP JUMPDEST DUP2 EQ PUSH2 0x15CF JUMPI PUSH0 PUSH0 REVERT JUMPDEST POP JUMP JUMPDEST PUSH0 DUP2 MLOAD SWAP1 POP PUSH2 0x15E0 DUP2 PUSH2 0x15BC JUMP JUMPDEST SWAP3 SWAP2 POP POP JUMP JUMPDEST PUSH0 DUP2 MLOAD SWAP1 POP PUSH2 0x15F4 DUP2 PUSH2 0xF1C JUMP JUMPDEST SWAP3 SWAP2 POP POP JUMP JUMPDEST PUSH0 PUSH0 PUSH0 PUSH0 PUSH0 PUSH1 0xA0 DUP7 DUP9 SUB SLT ISZERO PUSH2 0x1613 JUMPI PUSH2 0x1612 PUSH2 0xEEE JUMP JUMPDEST JUMPDEST PUSH0 PUSH2 0x1620 DUP9 DUP3 DUP10 ADD PUSH2 0x15A8 JUMP JUMPDEST SWAP6 POP POP PUSH1 0x20 PUSH2 0x1631 DUP9 DUP3 DUP10 ADD PUSH2 0x15D2 JUMP JUMPDEST SWAP5 POP POP PUSH1 0x40 PUSH2 0x1642 DUP9 DUP3 DUP10 ADD PUSH2 0x15E6 JUMP JUMPDEST SWAP4 POP POP PUSH1 0x60 PUSH2 0x1653 DUP9 DUP3 DUP10 ADD PUSH2 0x15E6 JUMP JUMPDEST SWAP3 POP POP PUSH1 0x80 PUSH2 0x1664 DUP9 DUP3 DUP10 ADD PUSH2 0x15A8 JUMP JUMPDEST SWAP2 POP POP SWAP3 SWAP6 POP SWAP3 SWAP6 SWAP1 SWAP4 POP JUMP JUMPDEST PUSH0 PUSH2 0x167B DUP3 PUSH2 0xE32 JUMP JUMPDEST SWAP2 POP PUSH2 0x1686 DUP4 PUSH2 0xE32 JUMP JUMPDEST SWAP3 POP DUP3 DUP3 MUL PUSH2 0x1694 DUP2 PUSH2 0xE32 JUMP JUMPDEST SWAP2 POP DUP3 DUP3 DIV DUP5 EQ DUP4 ISZERO OR PUSH2 0x16AB JUMPI PUSH2 0x16AA PUSH2 0x1355 JUMP JUMPDEST JUMPDEST POP SWAP3 SWAP2 POP POP JUMP INVALID LOG2 PUSH5 0x6970667358 0x22 SLT KECCAK256 GT SWAP8 0xCA CREATE2 0xCA SWAP14 PUSH25 0x4FA87ADFA590A4CB4385FE56B366929F3610530C0F2E031C1F PUSH5 0x736F6C6343 STOP ADDMOD 0x1E STOP CALLER "
				},
				"gasEstimates": {
					"creation": {
						"codeDepositCost": "1172800",
						"executionCost": "infinite",
						"totalCost": "infinite"
					},
					"external": {
						"MIN_VALUE()": "2513",
						"TARGET()": "2491",
						"changeOwner()": "26644",
						"contractBalance()": "379",
						"drawFun()": "infinite",
						"erc20Addr()": "2576",
						"expirationTime()": "2513",
						"fund()": "infinite",
						"funder2Amount(address)": "2825",
						"getBalanceUsd()": "infinite",
						"getChainlinkDataFeedLatestAnswer()": "infinite",
						"getMyFund()": "infinite",
						"isContractEnd()": "2607",
						"lockDuration()": "2449",
						"owner()": "2575",
						"refund()": "infinite",
						"setErc20(address)": "26994",
						"setFunder2Amount(address,uint256)": "27248",
						"startTime()": "2536"
					},
					"internal": {
						"ethWei2Usd(uint256)": "infinite"
					}
				},
				"methodIdentifiers": {
					"MIN_VALUE()": "992c15fc",
					"TARGET()": "cc1f2afa",
					"changeOwner()": "62a09477",
					"contractBalance()": "8b7afe2e",
					"drawFun()": "18cccf91",
					"erc20Addr()": "317e3ce0",
					"expirationTime()": "da284dcc",
					"fund()": "b60d4288",
					"funder2Amount(address)": "87bebdf7",
					"getBalanceUsd()": "b0800b3f",
					"getChainlinkDataFeedLatestAnswer()": "bea4dfb5",
					"getMyFund()": "5e9c72fc",
					"isContractEnd()": "3f79d96f",
					"lockDuration()": "04554443",
					"owner()": "8da5cb5b",
					"refund()": "590e1ae3",
					"setErc20(address)": "ee9b80a4",
					"setFunder2Amount(address,uint256)": "6555697b",
					"startTime()": "78e97925"
				}
			},
			"storageLayout": {
				"storage": [
					{
						"astId": 936,
						"contract": "FundMe.sol:FundMe",
						"label": "MIN_VALUE",
						"offset": 0,
						"slot": "0",
						"type": "t_uint256"
					},
					{
						"astId": 943,
						"contract": "FundMe.sol:FundMe",
						"label": "TARGET",
						"offset": 0,
						"slot": "1",
						"type": "t_uint256"
					},
					{
						"astId": 945,
						"contract": "FundMe.sol:FundMe",
						"label": "owner",
						"offset": 0,
						"slot": "2",
						"type": "t_address"
					},
					{
						"astId": 949,
						"contract": "FundMe.sol:FundMe",
						"label": "funder2Amount",
						"offset": 0,
						"slot": "3",
						"type": "t_mapping(t_address,t_uint256)"
					},
					{
						"astId": 952,
						"contract": "FundMe.sol:FundMe",
						"label": "dataFeed",
						"offset": 0,
						"slot": "4",
						"type": "t_contract(AggregatorV3Interface)45"
					},
					{
						"astId": 954,
						"contract": "FundMe.sol:FundMe",
						"label": "startTime",
						"offset": 0,
						"slot": "5",
						"type": "t_uint256"
					},
					{
						"astId": 956,
						"contract": "FundMe.sol:FundMe",
						"label": "lockDuration",
						"offset": 0,
						"slot": "6",
						"type": "t_uint256"
					},
					{
						"astId": 958,
						"contract": "FundMe.sol:FundMe",
						"label": "expirationTime",
						"offset": 0,
						"slot": "7",
						"type": "t_uint256"
					},
					{
						"astId": 960,
						"contract": "FundMe.sol:FundMe",
						"label": "erc20Addr",
						"offset": 0,
						"slot": "8",
						"type": "t_address"
					},
					{
						"astId": 963,
						"contract": "FundMe.sol:FundMe",
						"label": "isContractEnd",
						"offset": 20,
						"slot": "8",
						"type": "t_bool"
					}
				],
				"types": {
					"t_address": {
						"encoding": "inplace",
						"label": "address",
						"numberOfBytes": "20"
					},
					"t_bool": {
						"encoding": "inplace",
						"label": "bool",
						"numberOfBytes": "1"
					},
					"t_contract(AggregatorV3Interface)45": {
						"encoding": "inplace",
						"label": "contract AggregatorV3Interface",
						"numberOfBytes": "20"
					},
					"t_mapping(t_address,t_uint256)": {
						"encoding": "mapping",
						"key": "t_address",
						"label": "mapping(address => uint256)",
						"numberOfBytes": "32",
						"value": "t_uint256"
					},
					"t_uint256": {
						"encoding": "inplace",
						"label": "uint256",
						"numberOfBytes": "32"
					}
				}
			},
			"userdoc": {
				"kind": "user",
				"methods": {
					"getChainlinkDataFeedLatestAnswer()": {
						"notice": "Returns the latest answer."
					}
				},
				"version": 1
			}
		}
	}
}